:020000040800F2
:1020000088B70020F1210008E17100080558000898
:10201000DD710008993C000885CF00080000000031
:102020000000000000000000000000004D2100083A
:10203000214D000800000000912100081D850008C6
:102040000B2200080B2200080B220008C5760008AE
:102050000B2200080B2200080B2200080B220008AC
:102060000B2200080B2200080B2200080B2200089C
:102070000B2200080B2200080B2200080B2200088C
:102080000B2200080B2200080B2200080B2200087C
:10209000B1CC00080B2200080B2200080B2200081C
:1020A0000B2200080B2200080B2200080B2200085C
:1020B0000B2200080B2200080B2200080B2200084C
:1020C0000B2200080B2200080B2200080B2200083C
:1020D0000B220008DDCA0008EDCA00080B22000828
:1020E0000B2200080B2200080B2200080B2200081C
:1020F0000B2200080B2200080B2200080B2200080C
:102100000B2200080B2200080B2200080B220008FB
:10211000BDCA0008CDCA00080B2200080B22000827
:102120000B2200080B2200080B2200080B220008DB
:10213000DFF80CD000F01CFE00480047091B010826
:1021400088B7002080F3088870470000204B19688A
:102150000868B0E8F00F80F30988BFF36F8F4FF085
:10216000000080F311884EF00D0E70470000000053
:1021700006480068006880F3088862B661B6BFF35D
:102180004F8FBFF36F8F00DF00BF00BF08ED00E08F
:10219000EFF30980BFF36F8F0D4B1A6820E9F00F42
:1021A000106008B54FF0100080F3118812F0ECF8C1
:1021B0004FF0000080F31188BDE8084019680868F6
:1021C000B0E8F00F80F30988BFF36F8F704700BF4E
:1021D00048010020EFF311804FF0100181F31188C6
:1021E000704780F311887047EFF305807047000057
:1021F0000648804706480047FEE7FEE7FEE7FEE7A1
:10220000FEE7FEE7FEE7FEE7FEE7FEE73D850008A6
:102210003121000840EA01039B0703D009E008C907
:10222000121F08C0042AFAD203E011F8013B00F89B
:10223000013B521EF9D27047D2B201E000F8012BE7
:10224000491EFBD270470022F6E710B513460A4636
:1022500004461946FFF7F0FF204610BD421C10F857
:10226000011B0029FBD1801A704710B5002200E045
:10227000521C835C8C5CA34201D1002BF8D1D8B2F4
:10228000E1B2401A10BD30B504460020034600E01C
:102290005B1C934203D2E05CCD5C401BF8D030BDA8
:1022A00030B505460020034600E05B1C934205D292
:1022B000EC5CC85C201A01D1002CF6D130BD0000C6
:1022C0000FB400B58DB010A909900B9000914FF09C
:1022D000FF300A9000200C900548069005480790B2
:1022E0006A4609A80F9900F017FC0DB05DF814FBC1
:1022F000352B0008532B00082DE9FF5FD2E901A719
:102300004FF00008916999461446DDF838B046460A
:1023100001988847054659EA0B0005D009E0A169F4
:10232000761C019888470546216A28468847002878
:10233000F5D1681C03D05FEACA7005D015E04FF0F4
:10234000FF3004B0BDE8F09F2068011D2160D0F887
:1023500000800AE05FEACA7001D108F8015BA16958
:10236000761C7F1E019888470546002F1ADD681CE1
:1023700018D0B9F1000F0DD0E81705EBD06042116D
:1023800020F01F0059F822102A1A01209040014223
:10239000E0D107E0BBF1000FDCD1216A2846884775
:1023A0000028D7D0E16901988847BBF1000F07D119
:1023B000002E05DD5FEACA7002D1002188F8001006
:1023C000A068B84203DDBBF1000F03D017B16FF076
:1023D0000100B6E73046B4E7F0B480EA0102D40F5A
:1023E0004200B2EB410F02D20246084611464A00B3
:1023F00042D0C30DDDB2C1F3C752AD1A202D35DA7C
:10240000C1F3160141F4000204B15242C5F12006A5
:1024100002FA06F12A411044B3EBD05F23D0C4B1D5
:10242000012DA0EBC35009DCF0BC4FF0004202EAE2
:10243000C352DBB200F5000000F0A5BB400000F184
:10244000807000EBC350A0F1807040EAD170490069
:1024500009E0490841EAC071A0EBC35000F5000053
:10246000400800EBC350F0BC00F084BB6142012285
:1024700002EB4101001BF6E7F0BC704781F0004120
:10248000AAE780F00040A7E780EA010210B502F059
:102490000043400022D04A001FD0010E01EB126120
:1024A000C0F35600C2F3560240F4000042F40002AA
:1024B000A0FB022000047F39140400D0401C50EA25
:1024C000124001D44000491EC2B20C0604EBD010E9
:1024D000401C4008802A02D003E0002010BD20F0FC
:1024E0000100002900DA0020184310BD30B480EA52
:1024F000010202F0004530F0004221F0004013D00C
:1025000090B1C30DD40DC2F31601C0F31600E41A46
:1025100041F4000140F400027D34914201D3641C77
:1025200000E04900002C02DA30BC002070474FF474
:1025300000000023914201D3891A034340084FEA67
:102540004101F7D151B1914202D14FF0004105E074
:1025500002D24FF0010101E06FF0010103EBC45022
:10256000284430BC00F006BB2DE9FE4F804681EACE
:102570000300C00F0C46009021F0004123F00045FD
:10258000B8EB0200A94105D24046214690461C46C0
:102590000B46024623F00040104347D0270DC7F3F7
:1025A0000A00C3F30A510290401A019040286BDAE6
:1025B000C3F3130040F4801B0098924620B100231F
:1025C000D2EB030A63EB0B0B01985946C0F14002B2
:1025D000504600F06AFA06460D4650465946019AA2
:1025E00000F082FA10EB08006141002487EA1152E2
:1025F00084EAE7731A4340D0009A62B3019A012A31
:102600004FEA075215DC001B61EB02014FF000425C
:1026100002EA0752CDE90042001C41F58011324622
:102620002B4600F0EDFA03B0BDE8F08F404621469E
:10263000F9E7001B61EB0201001C41F58013001853
:102640005B412018A2F5001747EB030140EAD57063
:10265000B6196D4111E06D084FEA360645EAC075BE
:102660004FEA0752001B61EB0201001C41F580118B
:1026700049084FEA30000019514132462B4603B059
:10268000BDE8F04F00F0ADBA0098012240000023F1
:10269000D0EB020263EBE073009821464FEAE0744E
:1026A000B8EB000061EB0401E9E783F000435BE76E
:1026B00081F0004158E72DE9FE4F81EA030404F060
:1026C000004421F0004100944FF0000B23F0004340
:1026D00050EA01045ED052EA03045BD0C3F30A540B
:1026E000C1F30A552C44A4F2F3340194A0FB025424
:1026F000C1F3130141F48011C3F3130343F48013B6
:1027000001FB024400FB034E840A970A44EA815409
:1027100047EA8357A4FB076802958D0A05FB0785E6
:102720004FEA932C04FB0C542705029D4FEA0658F0
:1027300047EA1637B5EB08056EEB070C870E920ECD
:1027400047EA811742EA8312A7FB0201B6EB0B01AD
:1027500064EB00042B0D43EA0C335E1844EB1C5071
:10276000DA465146E7FB0201C5F313044FEA0B3387
:1027700043EA14534FEA0432019C43EA0603A4F1EE
:102780000C040294009CCDE900B400F039FA03B0C7
:10279000BDE8F08F00200146F9E72DE9F04D81EA10
:1027A000030404F0004B21F0004514464FF0000AEA
:1027B00023F0004150EA050220D054EA01021DD066
:1027C000C5F30A570246C5F31303C1F31300C1F35F
:1027D0000A5640F4801543F48013A7EB0608101B3B
:1027E000D64608F2FD3873EB050002D308F1010864
:1027F00001E092185B41B8F1000F03DA00200146B6
:10280000BDE8F08D00204FF48011064684460EE0AE
:10281000171B73EB050705D3121B63EB0503064378
:102820004CEA010C49084FEA300092185B4150EA2B
:102830000107EDD152EA030012D082EA040083EAD4
:102840000501084305D0101BAB4106D2012200232D
:1028500006E000224FF0004302E06FF00102531047
:102860001AEB06004CEB085110EB0A0041EB0B0190
:10287000BDE8F04D00F0B5B9C10F80EAE070084442
:10288000CA079623002100F07EB90EB5C10F80EA79
:10289000E0700844CA07002140F233438DE80E007F
:1028A0000A460B4600F0ACF903B000BD0EB540F28D
:1028B000334102910021CDE900110A460B4600F098
:1028C0009FF903B000BD00F0004220F00040C10DB0
:1028D000C0F3160040F400007F2901DA00207047A1
:1028E000962903DCC1F19601C84001E09639884081
:1028F000002AF4D04042704770B5C1F30A5201F08B
:1029000000450024C1F3130140F2FF3341F480116C
:102910009A4201DA002070BD40F233439A42A2F29B
:10292000334203DC524200F0CFF800E090402C43E9
:10293000F1D0404270BD00F0004230F000400AD0BB
:10294000C10D01F56071C0F3160042EA0151C208E1
:1029500040071143704700200146704730B5041E00
:1029600071F1000404DB4FF00044404264EB0101CC
:10297000141E73F1000405DB1C464FF00043524265
:1029800063EB04038B4208BF824230BD30B5041EA6
:1029900071F1000404DB4FF00044404264EB01019C
:1029A000141E73F1000405DB1C464FF00043524235
:1029B00063EB0403994208BF904230BD01F000432D
:1029C00030B421F0004150EA010206D00A0DA2F510
:1029D0006072C1F31301002A02DC30BC0020704792
:1029E000440F44EAC104C100E01830BC00EBC250FF
:1029F00000F0C0B8002801DBC0F10040002901DB75
:102A0000C1F1004181427047002801DBC0F1004064
:102A1000002901DBC1F100418842704730B50B4607
:102A2000014600202022012409E021FA02F59D42FE
:102A300005D303FA02F5491B04FA02F52844151ED2
:102A4000A2F10102F1DC30BD2DE9F05F0546002066
:102A500092469B4688460646814640241BE028460F
:102A600041464746224600F02FF853465A46C01AC0
:102A7000914110D311461846224600F016F82D1A3F
:102A800067EB01084F4622460120002100F00DF8B7
:102A900017EB00094E41201EA4F10104DFDC48467B
:102AA00031462A464346BDE8F09F202A04DB203AFF
:102AB00000FA02F1002070479140C2F1200320FA91
:102AC00003F3194390407047202A04DB203A21FA8F
:102AD00002F00021704721FA02F3D040C2F1200237
:102AE0009140084319467047202A06DBCB17203A4D
:102AF00041FA02F043EAE07306E041FA02F3D04003
:102B0000C2F12002914008431946704702681144FF
:102B10001378016018467047D16004495161044937
:102B2000116200211161114600F03AB90D2B000825
:102B3000952D0008426842B1016811F8013B23B1AC
:102B4000521EC0E90012184670470121C160881E5C
:102B5000704742685AB1C368016843B983688B42C1
:102B600005D0491E521CC0E90012002070474FF0EA
:102B7000FF3070470029A8BF7047401C490008BFBC
:102B800020F00100704710B4B0FA80FC00FA0CF09D
:102B900050EA010404BF10BC704749B1CCF12004D5
:102BA00021FA04F411FA0CF118BF01212143084362
:102BB000A3EB0C01CB1D4FEA00614FEA102042BF8E
:102BC000002010BC704700EBC35010440029A4BF84
:102BD00010BC7047401C490008BF20F0010010BC29
:102BE000704710B5141E73F1000408DA401C41F15F
:102BF000000192185B411A4301D120F0010010BD81
:102C00002DE9F04D92469B4611B1B1FA81F202E0F6
:102C1000B0FA80F220329046FFF747FF04460F4695
:102C200040EA0A0041EA0B0153465A46084313D0D2
:102C3000114653EA010019D0C8F140025046FFF78F
:102C400043FF05460E46504659464246FFF72DFFC4
:102C5000084305D0012004E020463946BDE8F08D48
:102C60000020054346EAE0762C4337430A98630583
:102C7000E40AA0EB08000022FD0A44EA47540A30A7
:102C800002D500200146E9E7010510196941DDE997
:102C9000084500196941BDE8F04DA2E72DE9F04D66
:102CA00000231A461B1A8A4103DB00200146BDE8B7
:102CB000F08DC1F30A52C1F3130141F480154FF0B6
:102CC000000BD10702D100186D41521E00270446A7
:102CD00040F2FF11384601EB620A3E46804602464A
:102CE00000204FF48011FFF7EFFEC2197141BB18AD
:102CF00046EB0100B4EB030C75EB000C04D3E41AB3
:102D000065EB000517460E46241908F101006D41D8
:102D100080463428E3DDF91946EB0600091BA8417B
:102D200003D24FF0FF32134601E0002213461BEBA3
:102D3000070046EB0A51BDE8F04DFFF752BFC1F363
:102D40000A52C1F3130140F2FF3341F480119A4259
:102D500002DA00200146704740F233439A42A2F261
:102D6000334202DC5242FFF7AFBEFFF79EBE0000C7
:102D7000064C074D06E0E06840F0010394E80700C8
:102D800098471034AC42F6D3FFF7D6F9C85601087D
:102D9000E8560108C0B24FF4F05100F097B90000B6
:102DA0002DE9F34F8BB04FF0000801F10C000C46F9
:102DB0004FF0010B46460DF1080A019062690121AE
:102DC0000198904705002DD0252D2CD0216A8847E9
:102DD000C0B16269012101989047216A88470028A3
:102DE000F7D1411E62690198904700E0761CA16905
:102DF0000B988847216A88470028F7D1E1690B982A
:102E00008847DBE7A1690B9888470746A84201D1AC
:102E1000761CD3E7E1690B9888477F1C02D1B8F193
:102E2000000F6FD046E1002762693D4639460198A0
:102E300090472A2804D16269012101989047012511
:102E4000DFF884926269012101989047A0F1300176
:102E50000A290AD24F45E5DC07EB870100EB410761
:102E6000303FDFD445F01005ECE7E90601D46FF000
:102E700000476C280AD04C2814D0682815D06A283E
:102E80000DD074281CD07A281AD01DE06269012167
:102E9000019890476C2802D045F0040514E045F0F5
:102EA00002050DE045F020050AE062690121019864
:102EB0009047682802D045F0080505E045F4006514
:102EC0006269012101989047C4E9015765283DD006
:102ED00019DC58287AD00CDC452837D004DC2528AA
:102EE00026D0412831D131E046282FD047282CD197
:102EF0002CE05B2877D0612828D063287CD0642818
:102F000023D15AE0D0E06F2848D008DC66281DD0D5
:102F100067281BD0692821D06E2816D127E0702899
:102F200045D0732868D0752847D078280DD14DE05A
:102F3000A1690B988847054625283FF469AFE169E8
:102F40000B9888476D1C3FF46AAFB3E023466A468E
:102F50006FF001000B99AFF300809EE045F0400058
:102F60006060A80723464FF0000236D43EE0E80731
:102F70007FF447AF2068011D21600068290501D555
:102F800006701BE7290701D5068017E7A90703D5B7
:102F9000F117C0E9006111E706600FE745F0400056
:102FA0006060A80723464FF0080216D41EE040F6E2
:102FB0000E0125EA0100606016E045F04000606007
:102FC000A80723464FF00A0207D40FE045F040005F
:102FD0006060A80708D5234610226FF001000B9906
:102FE000AFF3008059E007E0234610226FF00100A4
:102FF0000B99AFF3008050E04FF000094F464B466D
:10300000632802D05B2806D040E0E80601D4012006
:10301000A06001273AE062690121019890475E288B
:1030200005D14FF00109626949460198904721692D
:1030300039B900210A46534643F82120491C082982
:10304000FADBB0B3216969B9C11700EBD162531142
:103050000AEB830122F01F02821A01200B689040C4
:1030600003430B6062690121019890475D28E8D114
:10307000B9F1000F09D00020514651F82020D24369
:1030800041F82020401C0828F7DB02AB22460097BD
:103090006FF001000B99FFF72FF900280CDA401CA4
:1030A00008D1BBF1000F05D04FF0FF300DB0BDE8E7
:1030B000F08FFFE74046F9E7E90701D108F1010881
:1030C00006444FF0000B79E6CCCCCC0C7F2801D91C
:1030D000002208E0064A02EB5002C007127800D135
:1030E000120902F00F0201209040084070470000D2
:1030F0004456010870B58C1810F8015B15F00703F1
:1031000001D110F8013B2A1106D110F8012B03E080
:1031100010F8016B01F8016B5B1EF9D12B0705D488
:103120000023521E0DD401F8013BFAE710F8013BD1
:10313000CB1A921C03E013F8015B01F8015B521EED
:10314000F9D5A142D8D3002070BD70B504460E4613
:10315000154604223146204601F08AFE0422294603
:1031600004F1080001F084FE70BD7CB506460C46F3
:10317000154620680090286801900822694630466C
:1031800002F0E2F87CBD000010B5012011F0A4FAB5
:10319000054908600846006820B904A00AF074F8E0
:1031A00000BFFEE710BD0000300000207853656DC1
:1031B0006170686F72654372656174654D757465A1
:1031C00078206661696C757265210D0A0000000047
:1031D0001FB50020294A0623CDE901200093039062
:1031E00003464FF4806226A1284811F0EBFC002032
:1031F000274A0523CDE901200093039003464FF4AD
:10320000207224A1284811F0DDFC0020274A042365
:10321000CDE901200093039003464FF4207224A1CE
:10322000294811F0CFFC0020284A0323CDE90120D2
:103230000093039003464FF4207225A1274811F014
:10324000C1FC0020264A0223CDE90120009303900F
:1032500003464FF4807223A1244811F0B3FC0020F0
:10326000234A0123CDE901200093039003464FF444
:10327000807220A1224811F0A5FC1FBD9000002003
:103280005461736B5F41707000000000DD910008B5
:10329000940000205461736B5F55707065725F43DA
:1032A0006F6D707574657200D1AC0008A0000020CD
:1032B0005461736B5F48617264776172655F4D6FD3
:1032C0006E69746F720000009D960008A8000020CF
:1032D0005461736B5F4D543230303000919E000862
:1032E000AC0000205461736B5F54480051AC00087F
:1032F000BC0000205461736B5F416C61726D000013
:10330000BD9100080FB400B5A1B023A800908021A2
:1033100001A8009B229A09F0C7FF0020009000231B
:10332000421E19460848006811F031FA01A907A0A9
:1033300009F0AAFF00231A4619460348006811F055
:103340000FFB21B05DF814FB300000202573000056
:1033500010B502460B46002100201078012103E041
:10336000545C60404C1CE1B29942F9DB10BD10B5D1
:10337000012003F0A9FF002003F0A6FF10BD00000C
:1033800008B50146002000900348009000980844CA
:1033900000900098008808BD006C004008B500222D
:1033A0000092044A0092009A02440092009A11602E
:1033B00008BD0000006C00402DE9F04F89B00546C3
:1033C0000024A3460027FE480168FE480068FFF776
:1033D00055F80190FFF7AFFACDE902010BF008F8BC
:1033E0000022F94BCDE90401FFF7BEF8CDE9060153
:1033F000FFF782FA0646F248D0F8008000200890D5
:10340000814682463120F14988703220087132218C
:10341000EE48417181714620EC49C8703021EB487B
:1034200041738173C1730174417400BF64E305206B
:10343000E7498872012088730846C07B012803D0C1
:103440000846007D012810D103F0A0FC0020E049CF
:103450008873087548748874C87405F09FF8022052
:10346000DB49887209B0BDE8F08FD949D1F8620014
:10347000FFF761FA0022D74BCDE90601FFF76EFA9C
:1034800003D20020D249C872ECE74046FFF71BFA8E
:103490000A2190FBF1F03030CC4988724046FFF7AA
:1034A00012FA0A2190FBF1F201FB12003030C1B296
:1034B000C648C1724146C848FEF7E6FF0790FFF7CD
:1034C00002FA0A2190FBF1F201FB12003030C1B286
:1034D000BE4801734FF07E514046FEF77DFF8046A7
:1034E000002008908146824603F0BEF8B848407D2F
:1034F000012874D1B9A0FFF705FFB548D0F85A00EC
:103500000890B348D0F85E90D0F86AA00898FFF70A
:1035100012FA02460B46CDE90601B5A0FFF7F2FE0E
:103520004846FFF708FA02460B46CDE90601B7A068
:10353000FFF7E8FE5046FFF7FEF902460B46CDE9DD
:103540000601B9A0FFF7DEFEBF484078012807D08A
:10355000BD48C078012803D0BB48C07C012806D1F3
:1035600003F014FC00209A49887308757AE7B6487E
:10357000407C012803D0B448C07A012830D1002013
:10358000B149487403F002FC0DF06EFA01281ED117
:10359000AD48407801280BD0AB48C078012807D04F
:1035A000A948C07C012803D0A748C07A012806D1C9
:1035B00011208749887200208873087552E705201A
:1035C000834988720120887300200875B9E10520BD
:1035D0007F4988720120887300200875B1E1A8E155
:1035E0007B49D1F85A009949FFF704FAEED278489E
:1035F000C07B012803D07648007D01280ED103F05E
:10360000C5FB002072498873087548748874C874B3
:1036100004F0C4FF02206E49887223E740F2DC50B8
:103620000EF0B4FD02F088FFCE2003F081FC83464B
:103630006748D0F85A0008906548D0F85E90D0F8F6
:103640006AA00898FFF777F902460B46CDE9060114
:1036500067A0FFF757FE4846FFF76DF902460B4695
:10366000CDE9060169A0FFF74DFE5046FFF763F96B
:1036700002460B46CDE906016BA0FFF743FE7248F8
:103680004078012807D07048C078012803D06E48E0
:10369000C07C012808D111204D4988720020887310
:1036A000087503F073FBDDE66748407C012803D012
:1036B0006548C07A01282CD1002063494874C8723B
:1036C00003F064FB0DF0D0F901281AD15E48407870
:1036D000012807D05C48C078012803D05A48C07C34
:1036E000012806D111203A49887200208873087594
:1036F000B8E60520364988720120887300200875D5
:103700001FE1052032498872012088730020087566
:1037100017E14F484078FC2807D105202C498872D2
:1037200001208873002008750BE149484078FC2887
:1037300007D105202649887201208873002008756A
:10374000FFE04FF4FA600EF021FD2148D0F85A0056
:1037500008901F48D0F85E900898FFF7ECF80246F2
:103760000B46CDE9060122A0FFF7CCFD4846FFF746
:10377000E2F802460B46CDE9060124A0FFF7C2FDA0
:103780005046FFF7D8F802460B46CDE9060126A0C1
:10379000FFF7B8FD2C484078012807D02A48C078A8
:1037A000012803D02848C07C012853D111200849A2
:1037B000887200208873087503F0E8FA52E600006A
:1037C00060000020640000200000F03F861E002002
:1037D000BC01002000004440000020415377656593
:1037E000702F2FB7A2C9E4B3C9B9A60D0A00000013
:1037F00074656D705F466F72776172645F706F772A
:103800006572203D2025660D0A00000074656D700C
:103810005F526576657273655F706F776572203D84
:103820002025660D0A00000074656D705F53746199
:103830006E64696E675F776176655F726174696FE8
:10384000203D2025660D0A00080300200000FA44F0
:1038500027000020AB48407C012803D0A948C07A4B
:1038600001282ED10020A7494874C87203F08EFAAF
:103870000DF0FAF801281CD1A2484078012807D0A1
:10388000A048C078012803D09E48C07C012808D1F8
:1038900011209D49887200208873087503F076FA1C
:1038A000E0E505209849887201208873002008759A
:1038B0000EE0052094498872012088730020087565
:1038C00006E092484078FC2802D191A0FFF71AFD4B
:1038D0000898FEF7F8FFB0F5FA6F0ADB0898FFF7D3
:1038E0002AF802460B46CDE9060190A0FFF70AFD33
:1038F00027E05046FFF71FF80022974BCDE906015D
:10390000FFF72CF80AD35046FFF715F84FF0663250
:10391000924BCDE90601FFF739F812D85046FFF770
:103920000AF802460B46CDE906018DA0FFF7EAFC36
:1039300007E097A0FFF7E6FC0020089081464FF0D3
:10394000804A71491C3197A0FFF7DCFC0898FEF70C
:10395000F2FF02460B46CDE90601AFF26C10FFF70D
:10396000D1FC4846FEF7E7FF02460B46CDE90601CB
:10397000AFF26810FFF7C6FC5046FEF7DCFF0246C8
:103980000B46CDE90601AFF26010FFF7BBFC0898CB
:10399000FEF7D1FF0022884BCDE90401FEF7FDFEC2
:1039A000CDE90601FFF70AF804EB840105EB4101BC
:1039B000824A42F8210004EB840005EB4000804974
:1039C00041F8209004EB840005EB40007D4941F86C
:1039D00020A002F01BFE012003F0AAFA8346182063
:1039E00003F0A6FA8346BBF1010F7CD100204649C3
:1039F000087575A0FFF786FC784800687849097853
:103A0000884203DD7648007874490860754800688C
:103A100073490978884203DA71480078714908606F
:103A20006E48016870A0FFF76DFC6E48016875A0D4
:103A3000FFF768FC00206A4908703348C07B012802
:103A400003D03148007D01280CD100202E49887315
:103A5000087548748874C87404F0A0FD02202A49CF
:103A60008872FFE404F09AFD05202749887201203E
:103A70008873701EA04212DD00270DE02248C07B33
:103A8000012803D02048007D012800D1EAE4642009
:103A900010F024FB781CC7B2322FEFDB2AE0701E37
:103AA000A04227D1092D25D103F0E4FD5C49096826
:103AB00008445C4941F8240002F066F801280BD163
:103AC00001F00AFA58A0FFF71DFC01200E4988708A
:103AD000022088730EE006E059A0FFF713FC0020D7
:103AE0000949887306E005200649887159A0FFF747
:103AF00009FCB7E4601CC4B2B442FFF698AC00BF46
:103B0000B0E4000008030020BC01002027000020D2
:103B1000506F77657220456E6420666F7220416435
:103B200064206661696C2E0D0A000000506F776595
:103B30007220456E6420666F722053797374656DD0
:103B40002E466F72776172645F506F776572203DA9
:103B50002025660D0A0000000000F03F6666FE3F6B
:103B6000506F77657220456E6420666F72205379BE
:103B70007374656D2E5374616E64696E675F7761EF
:103B800076655F726174696F203D2025660D0A00BD
:103B900053776565702F2FB7A2C9E4CAA7B0DC0DB3
:103BA0000A00000053797374656D2E667265713179
:103BB000203D2025730D0A00000024401C15002024
:103BC0001C1A00201C11002053776565702F2FB739
:103BD000A2C9E4CDA3D6B90D0A00000074000020EC
:103BE0006800002078000020746573745F7363615F
:103BF0006E5F6D696E5F636F756E74203D20256426
:103C00000D0A0000746573745F7363616E5F6D61AC
:103C1000785F636F756E74203D2025640D0A000087
:103C2000080000201C1E0020666C61736820736110
:103C3000766520737563636573736564210D0A008F
:103C4000666C6173682073617665206572726F724D
:103C5000210D0A0053776565702073746F702035ED
:103C6000206E6F20726573706F6E642E0D0A0000F7
:103C700070B501F00BFD0446206806490840B0F11C
:103C8000005F06D172B665682E462068FEF75AFAC4
:103C9000B04770BD0000FE2F00BFFEE710B5002149
:103CA000837A012202FA03F13D4A126842F00102CE
:103CB0003B4B1A603A4A1C3212688A43384B1C3319
:103CC0001A60027BCAB9364A0C3212688A43344BF6
:103CD0000C331A604288C38842EA0343304A4032B8
:103CE000847A42F834300288838842EA03432C4ABB
:103CF0004032847A02EBC4025360027B012A19D15C
:103D0000274A0C3212680A43254B0C331A6042884A
:103D1000038842EA0343224A4032847A42F834302C
:103D2000C288838842EA03431D4A4032847A02EB08
:103D3000C4025360C27A3AB9194A121D12688A4302
:103D4000174B1B1D1A6006E0154A121D12680A4324
:103D5000134B1B1D1A60028932B9114A14321268C2
:103D60008A430F4B14331A600289012A06D10C4A88
:103D7000143212680A430A4B14331A60427B012A38
:103D800006D1074A1C3212680A43054B1C331A60DD
:103D9000034A126822F00102014B1A6010BD0000B4
:103DA000006600401AB143690B43436102E0436976
:103DB0008B434361704730B50246002000231468EE
:103DC00024F002041460146844F00104146000E05C
:103DD0005B1C546804F001041CB94FF6FF74A34245
:103DE000F6D1546804F001040CB900206CE08C7921
:103DF000012C04D1146844F08004146003E01468BA
:103E000024F080041460CC79012C04D1146844F0AF
:103E10004004146003E0146824F0400414600C7A39
:103E2000012C04D1146844F02004146003E01468E9
:103E300024F0200414604C7A012C04D1146844F05E
:103E40001004146003E0146824F0100414608C7AE9
:103E5000012C04D1146844F00804146003E01468D1
:103E600024F008041460CC7A012C04D1146844F0C6
:103E70000404146003E0146824F0040414608C78D3
:103E8000A407CD7844EA05640D7944EA05444D79E8
:103E900044EA05540D886D1E2C43D461146824F047
:103EA00001041460002300E05B1C546804F001046A
:103EB0001CB14FF6FF74A342F6D1546804F001041C
:103EC0000CB1002000E0012030BD00002DE9F043DE
:103ED00089B005460E4617469846DDF84090002406
:103EE0003E48007804023E4804430121042003F0C8
:103EF000DBF90121480603F0C7F94FF48050ADF813
:103F0000200003208DF8220018208DF8230008A936
:103F1000344801F0ABFA4FF40060ADF820004820BF
:103F20008DF8230008A92F4801F0A0FA00208DF891
:103F30001A008DF81B008DF81C0001208DF81D0063
:103F400000208DF81E0001208DF81F008DF81690BE
:103F50008DF817508DF818708DF81960ADF8148031
:103F600005A92148FFF727FF00208DF80E008DF8E6
:103F70000F0001208DF81000600BADF80400042044
:103F800000EBC40080B2ADF806004FF6FF70ADF84C
:103F900008004FF60600ADF80A000020ADF80C004E
:103FA00001208DF8110001A8FFF778FE01220221FF
:103FB0000D48FFF7F7FE14208DF8000001208DF862
:103FC000010000208DF8020001208DF803006846F2
:103FD00003F008F9002009B0BDE8F083BC0100201F
:103FE00000000205000801400064004010B500F523
:103FF000D87303EB01131B6803F004031372137AE5
:1040000053B900F5D87303EB01131B6840F2FF743A
:1040100004EA5353136009E000F5D87303EB01136E
:104020001B686FF0604404EAD303536000F5D87353
:1040300003EB01131B6803F00203537200F5D873FE
:1040400003EB01135B6803F00F03937200F5D87361
:1040500003EB01135B681B0AD37400F5D87303EB01
:1040600001139B68D37200F5D87303EB01139B68AF
:104070001C0A147300F5D87303EB01139B681C0C26
:10408000547300F5D87303EB01139B681B0E9373F5
:1040900000F5D87303EB0113DB68D37300F5D87315
:1040A00003EB0113DB681C0A147400F5D87303EBEF
:1040B0000113DB681C0C547400F5D87303EB011377
:1040C000DB681B0E937421B9C36843F02003C360FF
:1040D00003E0036943F02003036110BD10B50246FD
:1040E0000020936803F08063B3F1806F00D110E08B
:1040F000936803F00063B3F1006F01D1012008E081
:10410000936803F08053B3F1805F01D1022000E097
:104110000420042874D002F5C07303EB00131B685D
:1041200003F0010402F5C07303EB00131C600B7A6B
:104130007BB94B7A0C8843EA445302F5C07404EB14
:1041400000142468234302F5C07404EB00142360B8
:1041500010E00B7A4C6843EAC4034C7A234302F51F
:10416000C07404EB00142468234302F5C07404EB0C
:10417000001423608B7A03F00F038B7202F5C07377
:1041800003EB00135B6823F00F0402F5C07303EB2D
:1041900000135C6002F5C07303EB00135B688C7A5C
:1041A000234302F5C07404EB001463608B7B1C0690
:1041B0004B7B44EA03440B7B44EA0323CC7A23433E
:1041C00002F5C07404EB0014A3608B7C1C064B7CCE
:1041D00044EA03440B7C44EA0323CC7B234302F5EB
:1041E000C07404EB0014E36002F5C07303EB00132A
:1041F0001B6843F0010402F5C07303EB00131C605D
:1042000010BD000010B50246002321B1012907D0DE
:1042100002290FD109E090681D4C00EA04030BE06D
:1042200090681C4C00EA040306E090681A4C00EA0F
:10423000040301E0002300BF00BF184C181BA34279
:1042400016D007DC83B16FF08060184470B102288B
:1042500018D111E0B0F5007F10D0114C204448B1C6
:10426000B0F5003F0ED10BE002230DE000230BE080
:10427000002309E0002307E0012305E0012303E018
:10428000012301E0002300BF00BFD8B210BD000031
:1042900003000004000300080000031000010008F0
:1042A0000001FFF7F0B5ADF5057D04460E4600258B
:1042B00023A0FFF727F830460CF04AFD07461FB948
:1042C00002200DF5057DF0BD314601A801F0ECF9A5
:1042D0004FF4847201A943A8FDF79CFF9DF80C01DF
:1042E00008B90520EDE79DF80D1120A0FFF70AF8A9
:1042F00043A8C2789DF80E1125A0FFF703F89DF89A
:104300000E01207043A8C07860702AA0FEF7FAFF63
:10431000002506E044A8415D2CA0FEF7F3FF681CD1
:10432000C5B29DF81002C01EA842F3DC04A0FEF73F
:10433000E9FF43A800F072FA07463846C1E70000DB
:104340000D0A3D3D3D3D3D3D3D3D3D3D3D3D3D3D00
:104350003D3D3D3D3D3D3D3D3D3D3D3D3D3D3D3D8D
:104360003D3D3D3D3D3D3D0D0A00000043414E5F5A
:10437000646174615F6275662E43414E5F49445FBC
:10438000627566093D20253032580D0A0000000094
:1043900043414E5F646174615F6275662E46756E5F
:1043A000635F636F6465093D2025303258253032E4
:1043B000580D0A0043414E5F537065636966696337
:1043C0002044617461093D2000000000253032580E
:1043D000200000002DE9F04105460E46002400278C
:1043E00005E0295D38460AF03BF90746641CB442F3
:1043F000F7D33846BDE8F0812DE9F04707468846F7
:1044000016460024A1462348007848EA002922489D
:1044100049EA00092148C0F8049004201F490872A5
:10442000002048720846867200BF05E0395D1B48CF
:104430000B300155601C84B2B442F7DB00240CE061
:1044400016491748FFF74AFE0546042D00D006E03E
:1044500001200FF043FE601C84B20A2CF0DB00BF89
:10446000002401E0601C84B229460D48FFF7CAFE13
:1044700018B940F6FF708442F4DB02200FF02EFEE4
:1044800040F6FF70844202DB0120BDE8F087002087
:10449000FBE70000BC0100200000020520460020D0
:1044A000006400402DE9F84F05460C469146002671
:1044B0000027B34600BF86E0A05D052875D1701CBB
:1044C000205C02287DD1301D215CF01C205C01EBBA
:1044D000002087B2F81D205C032868D107F108008E
:1044E000205C042863D160792870A0796870E01995
:1044F00040798DF80000E01980798DF801009DF871
:1045000001009DF8001000EB01201FFA80FA3946E7
:10451000601DFFF75FFF8046D0453CD14FF0010B97
:104520002CA0FEF7EFFE6A78297832A0FEF7EAFEAB
:1045300028780E2814D16878012811D1207A3349BF
:104540000870607A4870D4F80A00C1F802004FF48D
:10455000006204F10E012D48801DFDF75BFE17E09F
:1045600028780F2806D16878012803D1207A2849B5
:1045700008700DE02878102802D16878012807D04B
:104580004FF0020B13A0FEF7BDFE22A0FEF7BAFE0D
:104590005846BDE8F88F4FF0020B0EA0FEF7B2FEB2
:1045A00022A0FEF7AFFE5846F3E70AE0FFE74FF020
:1045B000020B08A0FEF7A6FE20A0FEF7A3FE5846B9
:1045C000E7E7701C86B2B9F1080F3FF775AF02201C
:1045D000DFE700002D2D2D2D2D2D2D2D2D2D2D2DF9
:1045E0002D2D2D2D2D2D2D2D2D2D2D2D2D2D2D2DFB
:1045F0000D0A000066756E635F636F6465203D2081
:104600002530325820253032580D0A00F520002080
:104610008900002066756E6374696F6E20636F6435
:1046200065206572726F720D0A00000043524320CC
:104630006572726F72210D0A000000006861766574
:10464000206E6F742066696E64207461696C283016
:1046500033303429206572726F720D0A0000000039
:10466000014609B909487047012901D10848FAE70C
:10467000022901D10020F6E7032901D10548F2E71C
:10468000042901D10448EEE70020ECE7FC290020D2
:10469000242F00204C3100207435002008B525203F
:1046A0008DF8000005208DF8010000208DF8020033
:1046B00001208DF80300684602F094FD26208DF855
:1046C000000004208DF8010000208DF80200012078
:1046D0008DF80300684602F085FD34208DF8000057
:1046E00002208DF8010000208DF8020001208DF8D5
:1046F0000300684602F076FD35208DF800000120A9
:104700008DF8010000208DF8020001208DF80300D3
:10471000684602F067FD08BD2DE9FE4F07468A4650
:1047200093461D460C9C38A103C9CDE9010138A070
:10473000006800904FF00008C1463648007818B174
:10474000344800788DF806009DF8060018B9324804
:1047500000788DF80600E81CC0B28DF807003878A4
:104760008DF8080078788DF809009DF80710C81CAE
:10477000C11700EB5171C9109DF8072002EB8101B0
:104780000831C9B28DF80A1001982060BDF8080000
:10479000A0809DF80A00A0712A465146E01DFDF751
:1047A00039FDE91C201DFFF715FE0646300A8DF87D
:1047B0000000F0B28DF8010060190099C0F80710F0
:1047C00005F10B0084F8000194F80001C11700EB1B
:1047D0005171C910A0EBC10101F0FF08B8F1000F41
:1047E0000ED0C8F1080000F0FF0994F80011081974
:1047F0004946FDF728FD94F80001484484F800017B
:104800009DF80700BDE8FE8F0502000000000000D3
:1048100000000304C1070020BC0100202DE9FE4375
:10482000044600200290A07801287BD1E07801287E
:1048300078D1FE48217980F826100146D4F8050089
:104840000860D4F809004860D4F80D008860D4F8F6
:104850001100C860D4F815000861D4F81900486147
:10486000D4F81D008861D4F82100C861F049D4F85B
:1048700025200A60B4F829008880C81E21790170BB
:10488000ECA0FEF73FFDE9494868FEF754F80546FD
:104890000E46E6490868FEF74EF807463A460B46CC
:1048A000E5A0CDE90056FEF72DFDE049C868FEF70A
:1048B00042F805460E46DD498868FEF73CF8074693
:1048C0003A460B46DCA0CDE90056FEF71BFDD74962
:1048D0004869FEF730F805460E46D4490869FEF7E8
:1048E0002AF807463A460B46D3A0CDE90056FEF714
:1048F00009FDCE49C869FEF71EF805460E46CB49AC
:104900008869FEF718F807463A460B46CAA0CDE973
:104910000056FEF7F7FCC7A0FEF7F4FC0120BDE847
:10492000FE83FFE7A07802284ED1E07801284BD122
:10493000BF48C01E0078FF2808D12079BC49C91E95
:1049400008702079BE4908700320E8E7B848C01E07
:10495000007840B92079B649C91E08702079B84955
:1049600008700320DBE72079B149C91E0978884225
:1049700025D1607902909DF808000006B1490860D1
:10498000A0790290084600689DF8081000EB0140ED
:10499000AC490860E0790290084600689DF808106C
:1049A00000EB0120A7490860207A029008460068C1
:1049B0009DF808100844A34908600120AFE720795A
:1049C0009F4908700320AAE7A078032827D1E07840
:1049D000012824D120799649C91E097888421CD122
:1049E000994960790870E288A1F80520207AC87199
:1049F000D4F809208A60D4F80D20CA60D4F81100D8
:104A00000861B4F815204A80E07D08718849A269E0
:104A10000A60A08B8880012081E703207FE7A078CF
:104A2000042813D1E078012810D120798049C91ECB
:104A30000978884208D17E49D4F805200A60B4F884
:104A40000900888001206AE7032068E7A07805282C
:104A500018D1E078012815D120797549C91E097847
:104A600088420DD17949B4F80500A1F801007049D8
:104A7000D4F807200A60B4F80B00888001204EE7C4
:104A800003204CE7A078062813D1E078012810D144
:104A900020796749C91E0978884208D16449D4F849
:104AA00005200A60B4F809008880012037E7032058
:104AB00035E7A078072812D1E07801280FD12079B6
:104AC0005B49C91E0978884207D15949D4F80620A4
:104AD0000A6060898880012021E703201FE7A07811
:104AE00008280CD1E078012809D120795049C91E45
:104AF0000978884201D1012011E703200FE7A0784F
:104B0000092816D1E078012813D120794849C91E17
:104B1000097888420BD14E4960794870891CD4F8D5
:104B200006200A60D4F80A0048600120F7E6032056
:104B3000F5E6A0780A280FD1E07801280CD1207979
:104B40003B49C91E0978884204D1424960794870BE
:104B50000120E4E60320E2E6A0780B2811D1E078FA
:104B600001280ED120793249C91E0978884206D120
:104B70003949B4F80500A1F801000120CFE603206F
:104B8000CDE6A0780C2811D1E07801280ED120794B
:104B90002749C91E0978884206D13049B4F8050072
:104BA000A1F801000120BAE60320B8E6A0780D289C
:104BB0007ED1E0780128FBD120791D49C91E0978F2
:104BC000884276D1264960794870E08848802089FB
:104BD00088806089C880207B0872D4F80D00C1F8F5
:104BE0000900608AC881A08A0882A07D8874D4F8F0
:104BF0001700C1F81300A08B0883E08B48832020A6
:104C0000005D0877D4F82100C1F81D00E08C4884CD
:104C1000208D888494F82A0081F82600D4F82B008F
:104C2000C1F82700208E8885608E1BE01D030020C0
:104C3000BF0100200D0A0000256620202566000027
:104C4000C107002004000020440300205E03002070
:104C5000670300200C0000200E000020110000203F
:104C600071030020C88594F8340081F83000D4F82E
:104C70003500C1F83100608FC886A08F088794F88E
:104C80003E0081F83A00D4F83F00C1F83B00B4F888
:104C90004400A1F84000B4F84600A1F8420094F89E
:104CA000480081F84400D4F84900C1F8450001E00B
:104CB00034E031E0B4F84E00A1F84A00B4F85000F6
:104CC000A1F84C0094F8520081F84E00D4F853003B
:104CD000C1F84F00B4F85800A1F85400B4F85A00D5
:104CE000A1F8560094F85C0081F85800D4F85D00F3
:104CF000C1F85900B4F86200A1F85E00B4F864008D
:104D0000A1F8600094F8660081F86200D4F86700AA
:104D1000C1F86300012002E6032000E60420FEE55E
:104D2000704700000149C860704700000020024041
:104D300030B5044604254FF4302000F0B9F805469C
:104D4000042D17D10C48006940F002000A4908619F
:104D500008464461006940F0400008614FF430208B
:104D600000F0A6F805460448006941F6FD710840C8
:104D700001490861284630BD0020024004200B494B
:104D8000C96801F0010109B101200EE00749C968B5
:104D900001F0040109B1022007E00449C96801F0EB
:104DA000100109B1032000E00420704700200240F8
:104DB0000348006940F08000014908617047000025
:104DC0000020024070B504460D460426F00200F0B3
:104DD0006FF80646042E11D10948006940F0010021
:104DE000074908612580F00200F062F80646044891
:104DF000006941F6FE71084001490861304670BD06
:104E00000020024078B506460C460425002000909C
:104E1000E80200F04DF80546042D24D1134800693E
:104E200040F00100114908613480E80200F040F8C8
:104E30000546042D10D1B01C0090200C009908806C
:104E4000E80200F035F805460848006941F6FE71B1
:104E500008400649086106E00448006941F6FE7111
:104E6000084002490861284678BD00000020024041
:104E700030B503460C461546002206E0184600F001
:104E800007F8A0549B1C501C82B2AA42F6DB30BD2E
:104E90000146086880B270470248034948600348E9
:104EA000486070472301674500200240AB89EFCD81
:104EB00000B502460423FFF761FF034603E0FFF756
:104EC0005DFF0346521E012B01D1002AF7D102B922
:104ED0000523184600BD000070B500250024694C6C
:104EE0002068694908600846006868498870084673
:104EF0008078012801D0002070BD241D002505E028
:104F00002068634941F82500241D6D1CB5F5D47F48
:104F100002D260488442F3D3002505E020685E4950
:104F200041F82500241D6D1C0A2D02D259488442E7
:104F3000F4D34FF4547256495848FDF76BF94FF4C7
:104F4000547257495748FDF765F9002607E055495F
:104F500051F82600FDF7B7FC53498855761CD42E2E
:104F6000F5DB50224D495148FDF754F950224B4989
:104F700050314F48FDF74EF950224849A0314D4875
:104F8000FDF748F950224549F0314B48FDF742F909
:104F900050224A494A48FDF73DF9502247495031CD
:104FA0004848FDF737F950224449A0314648FDF7FB
:104FB00031F950224149F0314448FDF72BF9502294
:104FC00043494448FDF726F95022414950314248AF
:104FD000FDF720F930223E49A0314048FDF71AF98B
:104FE0001422314931485030FDF714F914222E496A
:104FF00014312F485030FDF70DF914222A49283179
:105000002C485030FDF706F9142227493C312A4834
:105010005030FDF7FFF81422234950312848503012
:10502000FDF7F8F814222049643126485030FDF786
:10503000F1F814221C49783123485030FDF7EAF882
:10504000142219498C3121485030FDF7E3F814221D
:105050001549A0311F485030FDF7DCF814221249E1
:10506000B4311D485030FDF7D5F81C4950310E4879
:105070008030826C0A60C26C4A60006D88600120DA
:105080003AE7000000280308CC000020BC01002003
:10509000F43E0020FF2F03081C1E00201C110020DE
:1050A000444200201C1500201C1900201E0900206D
:1050B0008C090020FA090020680A00205C120020F8
:1050C000D60A0020440B0020B20B0020200C002048
:1050D0009C1300208E0C0020FC0C00206A0D002088
:1050E000002105490868054A1060091D0868044A3E
:1050F000107000207047000000300308D00000202E
:10510000D40000202DE9F0410746884614460025CA
:1051100000260B2C25D2DFE804F02406090C0F1220
:1051200015181B1E21001B4806681EE01A48066859
:105130001BE01A48066818E01948066815E0194887
:10514000066812E0184806680FE0184806680CE088
:105150001748066809E01748066806E0164806681A
:1051600003E016A0FEF7CEF800BF00BF1EB94FF057
:10517000FF30BDE8F0813D46002004E0296806F8D4
:10518000011B2D1D401C642801DA4545F6D3002083
:10519000EFE70000D8000020DC000020E000002045
:1051A000E4000020E8000020EC000020F0000020D7
:1051B000F4000020F8000020FC0000204E6F206D5D
:1051C0006174636820706172616D65746572210D30
:1051D0000A0000002DE9F84F06460F4614464FF02E
:1051E00000080025002000904FF0040A4FF0010B4A
:1051F0000B2C57D2DFE804F056060E161E262E366C
:105200003E464E0004EB840042004D494D48FDF7F8
:1052100001F847E004EB8400420049494948FCF7A3
:10522000F9FF3FE004EB8400420045494548FCF7A4
:10523000F1FF37E004EB8400420041494148FCF7AC
:10524000E9FF2FE004EB840042003D493D48FCF7B4
:10525000E1FF27E004EB8400420039493948FCF7BC
:10526000D9FF1FE004EB8400420035493548FCF7C4
:10527000D1FF17E004EB8400420031493148FCF7CC
:10528000C9FF0FE004EB840042002D492D48FCF7D4
:10529000C1FF07E004EB8400420029492948FCF7DC
:1052A000B9FF00BF00BFFFF7F7FDB81B401CC00AE5
:1052B00000903420FFF736FD4FF0000808E04FF46F
:1052C000006101FB0860FFF733FD824608F1010829
:1052D0000098804502D2BAF1040FF0D035464FF065
:1052E000000908E0174810F809102846FFF78AFD62
:1052F0002D1D09F1010904EB84004000484504DD3F
:10530000BD4202D2BAF1040FECD0FFF751FD354691
:10531000002008E029680B4A125C914201D04FF04E
:10532000000B2D1D401C04EB84014900814204DD6B
:10533000BD4202D2BBF1000FECD15846BDE8F88F58
:1053400075030020BC4500202DE9F84F054688462E
:1053500016460024A1460027002000904FF0040AC2
:105360004FF0010BFFF798FD012000EBD6200090D5
:105370003520FFF7D7FC00BF08E04FF4006101FBC8
:105380000950FFF7D5FC824609F1010900988145D3
:1053900002D2BAF1040FF0D02F46002407E018F82B
:1053A00004103846FFF70EFDBF1C601CC4B2B442A7
:1053B00002D2BAF1040FF2D0FFF7FAFC2F46002414
:1053C00009E0386818F80410884201D04FF0000B4B
:1053D000BF1C601CC4B2B44202D2BBF1000FF0D1BA
:1053E0005846BDE8F88F000030B500210123194967
:1053F000002005E00C68184D45F82040091D401CB0
:10540000092804DA154CA14201D2002BF2D1086818
:10541000134C206020460068124C60700E480078E3
:10542000114C84F82600204690F826000D4C207080
:10543000094840680C4C20602246022005E0121DFD
:10544000054C54F820401460401C0828F7DD01206A
:1054500030BD000000200308D03E0020FF270308D5
:10546000C8000020BC0100201D0300202DE9F041F0
:10547000024600250026002000230024002791F882
:1054800003C00CF00F0591F803C00CF0100CBCF138
:10549000000F03D091F802C04CEA050591F800C056
:1054A000BCF1000F31D0146800202BE04FF0010C4C
:1054B0000CFA00F3B1F800C00CEA03069E4220D1BA
:1054C00083004FF00F0C0CFA03F7BC4305FA03FC02
:1054D0004CEA040491F803C0BCF1280F06D14FF048
:1054E000010C0CFA00FCC2F814C00AE091F803C0E9
:1054F000BCF1480F05D14FF0010C0CFA00FCC2F8CA
:1055000010C0401C0828D1D31460B1F800C0BCF111
:10551000FF0F34DD546800202EE000F1080C4FF03E
:10552000010808FA0CF3B1F800C00CEA03069E4229
:1055300021D183004FF00F0C0CFA03F7BC4305FA9E
:1055400003FC4CEA040491F803C0BCF1280F05D118
:1055500000F1080C08FA0CF8C2F8148091F803C0A6
:10556000BCF1480F07D100F1080C4FF0010808FA10
:105570000CF8C2F81080401C0828CED35460BDE857
:10558000F0810000F0B50A46002300240021002528
:1055900000F00046B6F1004F02D11D4EF16901E066
:1055A0001B4E7168C0F3034583B200F44016B6F594
:1055B000401F08D121F07061154E766826F07066A4
:1055C000134F7E6012E000F48016B6F5801F06D1FE
:1055D000032606FA05F4A14341F0706106E0460D8A
:1055E000360103FA06F6B14341F0706122B1460D6F
:1055F000360103FA06F6314300F00046B6F1004FDB
:1056000002D1034EF16101E0014E7160F0BD000076
:1056100000000140416170470161704700B5184AC0
:1056200018491948FDF791FD154800789A2825DAA0
:10563000134840789A2821DA1148807832281DDAF8
:105640000F48C078322819DA0E4800780C490978DA
:10565000884211DB0B4840780949497888420BDBC6
:105660000848807806498978884205DB0548C07873
:105670000349C978884201DA012000BD0020FCE717
:10568000C4000020C00000200088030810B5FFF708
:10569000C5FF08B1024C00E0024C204610BD0000DE
:1056A00000A0010800200008F0B5E3B005460C4654
:1056B00023488088C0F303208DF8010020788DF8FE
:1056C000020061788DF803101D4800798DF80401FF
:1056D0009DF80401C21EE11C01A8FCF79BFD9DF88A
:1056E0000401205C8DF888019DF80401401C205CB9
:1056F0008DF889019DF889019DF8881100EB01263C
:105700009DF80421214642A8FCF784FD9DF8041170
:1057100042A8FEF75FFE0746B74203D101208DF88D
:10572000000005E000208DF8000006A0FDF7EAFD6E
:1057300040F2051269462846FCF76CFD63B0F0BDE7
:1057400034460020435243B4EDCEF30D0A0000006E
:1057500010B5FFF763FF08B1024C00E0024C204691
:1057600010BD00000020000800A00108F0B58DB0B9
:1057700004463022224901A8FCF74CFD6069451E11
:10578000642195FBF1F12846EA1705EB9272C1EB13
:10579000A2014FF4C87295FBF2F28F186069C1172D
:1057A00000EB91718910A0EB810191B964226169CC
:1057B00091FBF2F302FB131131B99200616991FB85
:1057C000F2F302FB131121B92169022901DD01263F
:1057D00000E0002640F26D1005FB00712069401EBC
:1057E00001AA52F820000844E16808440644072052
:1057F00096FBF0F100FB1160A0610DB0F0BD000060
:10580000145601080BA100200CE00A5C154B1A800D
:1058100000BF144A121F128802F04002002AF8D07A
:10582000421CD0B22F28F0D308220F4B1A6000BFC1
:10583000FEE700000D0A456E7465722048617264CF
:105840004661756C745F48616E646C65722C2053A0
:10585000797374656D2048616C646661756C742E33
:105860000D0A000004380140100C014000B585B05D
:105870000121052001F018FD0121880301F014FD2C
:105880004FF40070ADF8100018208DF813000320BD
:105890008DF8120004A97948FFF7E8FD4FF4806005
:1058A000ADF8100004208DF8130004A97348FFF729
:1058B000DDFD4FF4E13000900020ADF80400ADF8BC
:1058C0000600ADF80800ADF80C000C20ADF80A0099
:1058D00069466B4807F076F9012240F22551684885
:1058E00007F04BF90121664807F011F9402164489F
:1058F00007F004F90121052001F0D6FC012148043C
:1059000001F0C2FC0420ADF8100018208DF813003F
:1059100003208DF8120004A95848FFF7A7FD0820BE
:10592000ADF8100004208DF8130004A95348FFF7C8
:105930009DFD4FF4165000900020ADF80400ADF826
:105940000600ADF80800ADF80C000C20ADF80A0018
:1059500069464C4807F036F9012240F22551494882
:1059600007F00BF90121474807F0D1F840214548DD
:1059700007F0C4F80121112001F096FC0121C804B0
:1059800001F082FC4FF48060ADF8100018208DF813
:10599000130003208DF8120004A93B48FFF766FDB1
:1059A0004FF40060ADF8100004208DF8130004A936
:1059B0003548FFF75BFD4FF4964000900020ADF8AE
:1059C0000400ADF80600ADF80800ADF80C000C209E
:1059D000ADF80A0069462D4807F0F4F8012240F2BC
:1059E00025512A4807F0C9F80121284807F08FF807
:1059F0004021264807F082F80121312001F054FCB3
:105A00000121080501F040FC4FF48050ADF8100072
:105A100018208DF8130003208DF8120004A91A48ED
:105A2000FFF724FD0420ADF810008DF8130004A941
:105A30001748FFF71BFD4FF4E13000900020ADF850
:105A40000400ADF80600ADF80800ADF80C000C201D
:105A5000ADF80A0069460F4807F0B4F8012240F299
:105A600025510C4807F089F801210A4807F04FF842
:105A70004021084807F042F805B000BD0008014089
:105A8000003801400044004000100140004C00403C
:105A900000140140005000402DE9F05F0025002473
:105AA000A3464FF004084FF00109334890F8260050
:105AB00032490860DFF8C0A0012007E02F4ADAF879
:105AC000001042F820100AF1040A401C0828F5DDF5
:105AD000FFF7E2F94FF0010B3420FFF723F900251F
:105AE00008E027494FF4006202FB0510FFF720F998
:105AF00080466D1C5D4502D2B8F1040FF1D0204CF8
:105B00001E4801682046FFF77DF9241D012707E0A4
:105B10001A4850F827102046FFF774F9241D7F1CFF
:105B2000082F05DC1748844202D2B8F1040FEFD0E9
:105B3000012631462046FFF765F9FFF739F9104C89
:105B4000002009E021680D4A52F82020914201D03E
:105B50004FF00009241D401C092805DA09498C4230
:105B600002D2B9F1000FEDD12068B04201D04FF060
:105B700000094846BDE8F09F1D030020D03E0020EC
:105B800000200308FF2703082DE9F0470025002423
:105B9000A146042601274FF454723F493F48FCF7C1
:105BA00039FB4FF454723E493E48FCF733FBFFF794
:105BB00073F94FF001093420FFF7B4F800BF08E093
:105BC00039494FF4006202FB0510FFF7B1F80646B1
:105BD0006D1C4D4501D2042EF2D0334C01212046DC
:105BE000FFF710F9241D4FF0000808E02B4850F88B
:105BF00028102046FFF706F9241D08F10108B8F522
:105C0000D47F04DA2948844201D2042EEED04FF02A
:105C1000000808E0264850F828102046FFF7F2F860
:105C2000241D08F10108B8F10A0F04DA1F48844264
:105C300001D2042EEED0FFF7BBF81B4C20680128E0
:105C400000D00027241D002008E02168134A52F8E4
:105C50002020914200D00027241D401CB0F5D47FA5
:105C600004DA12498C4201D2002FEED1002008E064
:105C700021680F4A52F82020914200D00027241DAD
:105C8000401C0A2804DA09498C4201D2002FEFD1C6
:105C90003846BDE8F08700001C110020F43E0020CB
:105CA0001C1500204442002000280308FF2F030891
:105CB0001C1E00202DE9F047054600260024002781
:105CC0004FF004084FF00109FFF7E6F801273420F0
:105CD000FFF728F800BF08E014494FF4006202FB08
:105CE0000610FFF725F88046761CBE4202D2B8F1B6
:105CF000040FF1D00D4C01212046FFF783F8241D3D
:105D000029462046FFF77EF8FFF752F8241F206847
:105D1000012801D04FF00009241D2068A84201D0BD
:105D20004FF000094846BDE8F08700000030030846
:105D300008B50121082001F0B7FA0820ADF80000ED
:105D400010208DF8030003208DF8020069460E48EC
:105D5000FFF78CFB0121082001F0A6FA1020ADF816
:105D600000008DF8030003208DF802006946064804
:105D7000FFF77CFB08210448FFF74EFC1021024886
:105D8000FFF74AFC08BD0000000C014010B586B0CA
:105D90001422074901A8FCF73DFA01A8FCF75EFAB6
:105DA000C4B2224601A9032008F03BFC06B010BD96
:105DB0004053010810B5002400F028FC012001F038
:105DC000B7F80446182001F0B3F80446112015492D
:105DD0008872012C19D10020887308754874887462
:105DE000C87402F0DBFBFE200F4948700AF03CFE4D
:105DF000012803D111200B49887202E002200949D1
:105E000088720AA0FDF77EFA0BE00220064948706E
:105E100011A0FDF777FA17201449887114A0FDF737
:105E200071FA10BDBC0100201A0000204D54323020
:105E300030305F416C61726D5F53746F7020656DBF
:105E400069742073746F7020737563636573736610
:105E5000756C6C792E0D0A00656D69742073746F12
:105E600070206661696C2E0D0A0000000803002096
:105E70004D54323030305F53746F70203233206EA7
:105E80006F20726573706F6E642E0D0A0000000043
:105E900010B5032008F0A8FB10BD000010B500F0FD
:105EA00073FB012001F044F80446012C11D1FE20BF
:105EB0000E494870FD200E4948700AF0D5FD0128B2
:105EC00003D111200B4988720FE004200949887220
:105ED0000BE0FD200549487007A0FDF713FA0720E5
:105EE0000B4988710BA0FDF70DFA10BD23000020AF
:105EF00021000020BC0100204E30323A73797374C7
:105F0000656D20636C6F7365206661696C210A00A2
:105F1000080300204D54323030305F436C6F73659E
:105F20002037206E6F20726573706F6E642E0D0ABD
:105F3000000000002DE9F04198B004468846052293
:105F4000214697A0FCF7ACF905461DB9002018B012
:105F5000BDE8F0810522214693A0FCF7A1F9054692
:105F60000DB90120F3E71022214691A0FCF798F922
:105F7000054635B9002092490870FFF707FF012058
:105F8000E5E70B2221468FA0FCF78AF9054635B9D3
:105F900000208B490870FFF7F9FE0120D7E70B229C
:105FA00021468BA0FCF77CF9054645BB8B48C07A9F
:105FB000022822D182480078401C81490870084696
:105FC0000078052819DB002008708449487488741B
:105FD000C87402F0E3FA00208049C1F862008873B7
:105FE000C87208730AF040FD012803D111207B49D3
:105FF000887202E00420794988720120A7E7C8E08E
:10600000207848287ED160784528FBD1A0783328B5
:10601000F8D1E0782C28F5D10020694908700026D5
:1060200006E022783046711CCEB208A90A54641CDE
:1060300020780A28F5D10A223046711CCEB208A970
:106040000A54002088559DF8240034283BD1634829
:10605000407A01282AD16249887001F00BFB61491E
:10606000096847186049384606F0FAFC5E48007D2A
:10607000A0F5FA605D4981F837005B48017C5B4818
:1060800080F838105848017B584880F83910564835
:10609000017A564880F83A1053480179534880F8FD
:1060A0003B1051480178514880F83C1011204B4971
:1060B000887201204A49087048704DA0FDF722F906
:1060C0006FF0010043E79DF82600514988709DF864
:1060D0002800C8709DF82A0008719DF82A104C48C5
:1060E00041719DF82A1081719DF82C004849487033
:1060F000084680783038012805D0022816D00328B9
:1061000040D128E044E042483830011D021F931F6F
:10611000CDE90132CDE903101038243B2D3A3DA1E1
:1061200000900DF12E00FCF7CBF82CE0384A383205
:10613000111D101F831FCDE90230CDE904120C3868
:106140002839243B313ACDE900103FA10DF12E0052
:10615000FCF7B6F817E02E4938310A1D081F831FD7
:10616000CDE90330CDE905210C381A39283A243B12
:10617000CDE9002102900D3A42490DF12E00FCF7C5
:106180009FF800E000BF00BF02F0F0FC0120DEE657
:10619000641C207800287FF433AF00BFD7E60000EE
:1061A0004E4B0D0A000000004F4B0D0A000000008E
:1061B0005343494220506F7274204F6B210D0A00E7
:1061C000840000204845332C312A32450D0A000056
:1061D0004845332C322A32440D0A0000BC0100200D
:1061E0000803002008000020E00D0020F107002037
:1061F000656D697373696F6E20616C61726D20618A
:106200006C61726D20616C61726D210D0A0000007D
:10621000441E0020255B5E2C5D2C255B5E2C5D2CD6
:10622000252A5B5E2C5D2C255B5E2C5D2C255B5E40
:106230002C5D2C255B5E2C5D2C255B5E2C5D2C255E
:106240005B5E2A5D252A7300255B5E2C5D2C255B39
:106250005E2C5D2C255B5E2C5D2C252A5B5E2C5D07
:106260002C255B5E2C5D2C255B5E2C5D2C255B5EFE
:106270002C5D2C255B5E2C5D2C255B5E2A5D2C2520
:106280002A730000845601082DE9F04190B0804641
:10629000002500240027002600BF48222146641C58
:1062A0000DF8012045222146641C0DF801203422FE
:1062B0002146641C0DF801202C222146641C0DF897
:1062C000012033222146641C0DF801202C22214696
:1062D000641C0DF8012030222146641C0DF80120B9
:1062E00031222146601CC4B20DF801202C22204628
:1062F000611CCCB20DF800207E4882782046611CDB
:10630000CCB20DF800202C222046611CCCB20DF836
:10631000002046222046611CCCB20DF800202C2221
:106320002046611CCCB20DF8002072480079342858
:1063300006D132222046611CCCB20DF8002006E0C6
:106340006C4802792046611CCCB20DF800202C224A
:106350002046611CCCB20DF80020002509E06548FC
:106360000A30425D2046611CCCB20DF80020681C4A
:10637000C5B2082DF3DB5F488078322826D12C2265
:106380002046611CCCB20DF80020002509E05948D8
:106390001430425D2046611CCCB20DF80020681C10
:1063A000C5B2082DF3DB2C222046611CCCB20DF8BF
:1063B000002030222046611CCCB20DF8002035228E
:1063C0002046611CCCB20DF800203DE049488078A1
:1063D000332839D12C222046611CCCB20DF8002084
:1063E000002509E043481430425D2046611CCCB2D0
:1063F0000DF80020681CC5B2082DF3DB2C222046C6
:10640000611CCCB20DF80020002509E039481E308F
:10641000425D2046611CCCB20DF80020681CC5B25C
:10642000082DF3DB2C222046611CCCB20DF8002095
:1064300030222046611CCCB20DF8002035222046C7
:10644000611CCCB20DF80020A01EC1B20DF10200FB
:10645000FCF77EFF07462A222046611CCCB20DF8CD
:1064600000203E09092E08DD06F13700C2B22046A1
:10647000611CCCB20DF8002007E006F13000C2B27A
:106480002046611CCCB20DF8002007F00F06092E43
:1064900008DD06F13700C2B22046611CCCB20DF80F
:1064A000002007E006F13000C2B22046611CCCB2E9
:1064B0000DF800200D222046611CCCB20DF8002002
:1064C0000A222046611CCCB20DF8002000200DF8F5
:1064D00004006846FBF7C2FEC4B2694606A0FCF79A
:1064E00011FF22466946032008F09BF8012010B0F6
:1064F000BDE8F081861E00204D54323030305F43BD
:106500006D645F4368616E6E656C203D202573008D
:1065100010B586B01422074901A8FBF77BFE01A83D
:10652000FBF79CFEC4B2224601A9032008F079F8CB
:1065300006B010BD6853010810B586B01422074993
:1065400001A8FBF767FE01A8FBF788FEC4B222464C
:1065500001A9032008F065F806B010BDE05301085A
:1065600010B586B01422074901A8FBF753FE01A815
:10657000FBF774FEC4B2224601A9032008F051F8CB
:1065800006B010BDB853010810B586B00120094906
:1065900008731422084901A8FBF73CFE01A8FBF789
:1065A0005DFEC4B2224601A9032008F03AF806B005
:1065B00010BD0000BC010020A453010810B586B036
:1065C0001422074901A8FBF725FE01A8FBF746FEA8
:1065D000C4B2224601A9032008F023F806B010BD7A
:1065E0009053010810B586B01422074901A8FBF7A3
:1065F00011FE01A8FBF732FEC4B2224601A9032016
:1066000008F00FF806B010BDCC53010810B586B0E5
:106610000120094908751422084901A8FBF7FAFD71
:1066200001A8FBF71BFEC4B2224601A9032007F014
:10663000F8FF06B010BD0000BC0100207C5301082B
:1066400010B586B01422074901A8FBF7E3FD01A8A5
:10665000FBF704FEC4B2224601A9032007F0E1FFC4
:1066600006B010BDF45301082DE9F04100260025C5
:106670009AA0FCF747FE9D48807B012803D10520A6
:106680009A49887202E0032098498872FFF700FC5B
:10669000002517E00120FFF7F7FD012000F048FC7E
:1066A0000446432000F044FC0446A01C18B9FFF740
:1066B00081FBBDE8F081012C02D1FFF7E9FB03E08B
:1066C000681CC5B2032DE5DB00BF012C7DD188A07D
:1066D000FCF718FE002511E0FFF7B2FF742000F070
:1066E00027FC0446A01C10B9FFF764FBE1E7012C6E
:1066F00002D1FFF7CDFB03E0681CC5B2032DEBDB35
:1067000000BF012C79D181A0FCF7FCFD7748007D0A
:10671000012817D1002075490875C8730220C87276
:10672000002048748874C87401F038FF0AF09CF99E
:10673000012803D111206D49887202E002206B49C3
:106740008872B6E778484078012803D07648C07848
:1067500001280ED111206549887200200875C87380
:106760000220C872002048748874C87401F016FFB3
:106770009FE7002515E0FFF7CBFE012000F0D8FBD6
:1067800004460D2000F0D4FB0446A01C10B9FFF70E
:1067900011FB8EE7012C02D1FFF77AFB03E0681CA6
:1067A000C5B2032DE7DB00BF012C13D000204F49F9
:1067B00008750220C872002048748874C87401F0FB
:1067C000EDFE0A205849887100E06DE057A0FCF703
:1067D00099FD6EE70020454948735DA0FCF792FDE6
:1067E00000262DE0FFF7A8FECE2000F0A1FB044616
:1067F000A01C18B9FFF7DEFA5BE740E03B49D1F88F
:106800006600FCF798F807460022544BFCF7BEF8E8
:106810000ED83649D1F85A00FCF78DF80746002209
:106820004F4BFCF7B3F803D801203049487509E015
:1068300000202E49487564200DF050FC701CC6B233
:10684000642ECFDB00BF012C06D00C2036498871A6
:1068500044A0FCF757FD2CE70CF04CFE06F094FB2F
:1068600031484078012807D02F48407C012803D0C8
:106870002D48C07A01282FD1FFF79CFA19E743A0D1
:10688000FCF740FD0020194908750220C87200205D
:1068900048748874C87401F081FE09202249887107
:1068A0003FA0FCF72FFD04E746A0FCF72BFD0020DE
:1068B0000E4908750220C872002048748874C87494
:1068C00001F06CFE45A0FCF71DFD082016498871FB
:1068D00045A0FCF717FDECE600BFEAE6456D6973DD
:1068E0002F2FD6B4D0D00D0A00000000BC0100202C
:1068F000456D69732F2F4368616E6E656C207375EB
:106900006365737366756C6C790D0A00456D697308
:106910002F2F54756E696E67207375636573736688
:10692000756C6C790D0A0000080300204D5432305C
:1069300030305F456D697420456D697420313020B9
:106940006E6F20726573706F6E642E0D0A0000000A
:10695000B7A2C9E4B3C9B9A60D0A00000000F03F10
:1069600000C072404D54323030305F456D69742044
:10697000496E7175697265203132206E6F207265C3
:1069800073706F6E642E0D0A00000000456D697310
:106990002F2F54756E696E67206661696C0D0A0051
:1069A0004D54323030305F456D69742054756E69D6
:1069B0006E672039206E6F20726573706F6E642E63
:1069C0000D0A0000456D69732F2F4368616E6E6577
:1069D0006C206661696C0D0A00000000B7A2C9E472
:1069E000CAA7B0DC0D0A00004D54323030305F458C
:1069F0006D6974204368616E6E656C2038206E6F1F
:106A000020726573706F6E642E0D0A0000203121B4
:106A1000574A91704621D170322111713222544966
:106A20004A718A713021524AD171312250490A7219
:106A300000224A7200BF05E030224D490A310A5453
:106A4000411CC8B20828F7DB002249498A7400209B
:106A500005E03022464914310A54411CC8B20828C6
:106A6000F7DB002242490A77002005E03022404946
:106A70001E310A54411CC8B20828F7DB00223C49E9
:106A800081F82620002005E03022394928310A54B7
:106A9000411CC8B20428F7DB0022354981F82B20BD
:106AA000002005E0302232492E310A54411CC8B280
:106AB0000428F7DB00222E4981F8312031212D4AAC
:106AC00091704621D17032211171322229494A71C7
:106AD0008A715021274A51703021D17131222549C4
:106AE0000A7200224A72002005E0302221490A3150
:106AF0000A54411CC8B20828F7DB00221D498A74D9
:106B0000002005E030221B4914310A54411CC8B250
:106B10000828F7DB002217490A77002005E0302219
:106B200014491E310A54411CC8B20828F7DB002260
:106B3000104981F82620002005E030220D49283137
:106B40000A54411CC8B20428F7DB0022094981F825
:106B50002B20002005E0302206492E310A54411C2A
:106B6000C8B20428F7DB0022024981F831207047BF
:106B7000861E0020441E002070B5FFF7DDFCCE20ED
:106B800000F0D6F90446A01C10B9FFF713F970BD48
:106B9000012C7DD1FFF77CF9FFF710FD012000F0FB
:106BA000C7F90446CE2000F0C3F90446CE2000F019
:106BB000BFF90446022000F0BBF90446012C42D183
:106BC0004649D1F86200FBF7B6FE05460022444B69
:106BD000FBF7DCFE19D202204049C872FC20414973
:106BE000487041A0FCF78EFB494890F8CA00012884
:106BF00071D109F039FF012803D11120374988727A
:106C000069E002203549887265E001204149C87079
:106C1000002048713149C872FD20324948703EA0B9
:106C2000FCF770FB3A4890F8CA00012853D109F0EC
:106C30001BFF012803D11120284988724BE0042052
:106C40002649887247E001203249C8700020487107
:106C50002249C872FD202349487038A0FCF752FB36
:106C60002B4890F8CA0001280BD109F0FDFE01283D
:106C700004D111201949887203E009E00420174962
:106C8000887206202349887131A0FCF73BFB22E083
:106C900001202049C870002048711049C872FD20A9
:106CA0001049487025A0FCF72DFB194890F8CA0040
:106CB00001280AD109F0D8FE012803D11120074983
:106CC000887202E0042005498872182011498871F1
:106CD00026A0FCF717FB00BF59E70000BC0100200D
:106CE000000044402100002073797374656D206FAB
:106CF00070656E207375636365737366756C6C790C
:106D0000213131313131313131313131310A00000C
:106D10002A0200200803002073797374656D206FC8
:106D200070656E206661696C2131313131313131EC
:106D30003131313131313131310A000073797374BD
:106D4000656D206F70656E206661696C210A0000B8
:106D50004D54323030305F4F70656E2036206E6F8C
:106D600020726573706F6E642E0D0A004D543230C0
:106D700030305F4F70656E203234206E6F20726548
:106D800073706F6E642E0D0A0000000070B5002550
:106D900001203A49087500BF0CE0FFF7CDFBCE207B
:106DA00000F0C6F80446012C01D0A01C00B903E095
:106DB000681CC5B2032DF0DB00BF012C49D12F4860
:106DC000407D012810D000202C4948738873087535
:106DD00048748874C87401F0E1FBFC2028494870AD
:106DE00028A0FCF78FFA40E0FFF710FC012000F02C
:106DF0009FF80446182000F09BF80446012C1BD194
:106E000000201E4948738873087548748874C874D4
:106E100001F0C4FB09F028FE012803D11120174915
:106E2000887202E0022015498872FE2014494870D9
:106E30001CA0FCF767FA18E002201149487020A056
:106E4000FCF760FA0E202349887123A0FCF75AFA58
:106E50000BE002200A49487019A0FCF753FA0D20F4
:106E60001C49887124A0FCF74DFA0448407D20B9E4
:106E700001F094FB28A0FCF745FA70BDBC0100208E
:106E80001A000020616C72656164792073746F7000
:106E9000207375636365737366756C6C792E0D0A68
:106EA00000000000656D69742073746F7020737545
:106EB000636365737366756C6C792E0D0A00000050
:106EC000656D69742073746F70206661696C2E0D36
:106ED0000A000000080300204D54323030305F5368
:106EE000746F70203134206E6F20726573706F6E16
:106EF000642E0D0A000000004D54323030305F53D4
:106F0000746F70203133206E6F20726573706F6EF6
:106F1000642E0D0A0000000073746F702073756397
:106F20006365737366756C6C79210D0A000000004F
:106F30002DE9F84F05464FF00009CA46CB4600241C
:106F40002B2D25D00CDC032D2ED004DC012D10D0F0
:106F5000022D2CD125E00D2D17D0182D27D11DE0A5
:106F60002D2D18D0432D0AD0742D0BD0CE2D1ED12F
:106F700002E04FF0140B1DE04FF0140B1AE04FF03D
:106F8000140B17E04FF4167B14E04FF0140B11E0D4
:106F90004FF0140B0EE04FF0140B0BE04FF0140BFE
:106FA00008E04FF4967B05E04FF03C0B02E04FF019
:106FB000640B00BF00BF4FF000099DE013E0FF2C01
:106FC0000EDC9DF800202046641C78490A54A01E5F
:106FD000085C0D2804D1601E085C0A2800D108E076
:106FE00001200DF07BF86946032007F00BFB002819
:106FF000E5D100BF022C77DDA01E6C49085C0D288E
:1070000072D1601E085C0A286ED10020085568A065
:10701000FCF778F929466548FEF78CFF0646012EF5
:107020005FD16848C078012803D1002066490875FF
:10703000C873002063494871C87009F015FD012824
:1070400023D16148807A012803D05F48807A0528DF
:1070500017D15C48407801280FD05A48C0780128E1
:107060000BD05848C07C012807D05648407C0128E6
:1070700003D05448C07A012833D111205249887274
:107080002FE01120504988722BE007F01FFA4E487C
:10709000407818B910204C49887222E04A48807A1A
:1070A00006281ED04848807A03281AD04648807A9D
:1070B000012816D04448807A052812D04249D1F8D8
:1070C0006200FBF738FC07460022404BFBF75EFCF2
:1070D00004D802203C49887203E005E004203A49C4
:1070E00088723046BDE8F88F002432200CF0F6FF9D
:1070F00009F101001FFA80F9D945FFF65FAF314869
:10710000C078E8BB2F484079401C2E49487108469A
:107110004079032847DB002048712B48407A01283A
:1071200029D1087100F0A6FA2949096847182949A8
:10713000384605F095FC2748007DA0F5FA60264901
:1071400081F831002348017C234880F8321021481F
:10715000017B214880F833101E48017A1E4880F8D0
:1071600034101C4801791C4880F835101948017802
:10717000194880F8361001201249C870087000E0E4
:1071800011E00020104948748874C874084690F8CB
:1071900015A00020C1F86200C1F8660001F0FEF9F8
:1071A000094880F815A04FF0FF309BE7C81F00206A
:1071B000456D697373696F6E5F5278203D2025734A
:1071C0000000000008030020BC0100200000444033
:1071D00008000020E00D0020F107002000BFFEE7BE
:1071E0007047000070B5002100230F22C47804B35B
:1071F000154C246804F4E064C4F5E064210AC1F18C
:107200000403CA40447804FA03F18478144021430B
:1072100009010E4C0678A155047804F01F050124DD
:10722000AC4005786D11AD0005F1E025C5F80041D1
:1072300009E0047804F01F050124AC40044D0678F1
:10724000761145F8264070BD0CED00E000E400E04A
:1072500080E100E002490143024A116070470000EA
:107260000000FA050CED00E0024A0A400243024B1E
:107270001A60704780FFFF1F08ED00E001490862B7
:107280007047000000000E4229B1064AD26902434D
:10729000044BDA6104E0034AD2698243014BDA61AC
:1072A000704700000010024029B1064A926902436B
:1072B000044B9A6104E0034A92698243014B9A614C
:1072C000704700000010024001490860704700004C
:1072D000400442420348406A40F0807001494862DD
:1072E000704700000010024030B500210022002449
:1072F00000232D4D6D6805F00C0121B1042905D046
:10730000082923D105E0294D056022E0274D0560BD
:107310001FE0254D6D6805F47012234D6D6805F46E
:107320008034022505EB92421CB9214D554305607E
:107330000BE01D4D6D6805F400351DB11C4D554326
:10734000056002E0194D5543056002E0174D0560E8
:1073500000BF00BF144D6D6805F0F0010909154D1F
:107360006B5C0568DD4045600F4D6D6805F4E061BC
:10737000090A104D6B5C4568DD4085600A4D6D68FB
:1073800005F46051C90A0B4D6B5C4568DD40C56072
:10739000054D6D6805F44041890B074D6B5CC56870
:1073A000B5FBF3F5056130BD0010024000127A0014
:1073B00000093D00340100204401002010B50146C1
:1073C0000022002300204A11012A02D1094C23681F
:1073D00006E0022A02D1074C236A01E0054C636AE9
:1073E00001F01F02012494401C400CB1012000E078
:1073F000002010BD0010024000210B4A11700A4A03
:10740000203A82F82010012802D0042808D103E095
:107410000121054A117004E00521034A117000E0C2
:1074200000BF00BF70470000201002400149086003
:10743000704700003C0442420249096A0143014A84
:10744000116270470010024038B5002000900024FF
:10745000002500BF3120FFF7B1FF05460098401C12
:1074600000900098B0F5A06F01D0002DF2D031202F
:10747000FFF7A4FF08B1012400E00024204638BD36
:1074800010B504460420FBF77BFF4AF2A551884261
:107490000ED01BA005F0F8FE21A005F0F5FE204659
:1074A00005F0CEFA4AF2A5510420FBF777FF21E060
:1074B00001214FF0C050FFF7E7FE0120FFF7DEFE8D
:1074C0007B20FFF77BFF18B11BA005F0DDFE06E077
:1074D0007A20FFF773FF10B11FA005F0D5FE26A09C
:1074E00005F0D2FE00F044F90121084600F0F6F85C
:1074F00000F034F900F002F9FFF7ECFE10BD0000D7
:107500000D0A525443206E6F742079657420636FA6
:107510006E666967757265642E2E2E2E000000005F
:107520000D0A52544320636F6E6669677572656415
:107530002E2E2E2E0D0A00000D0A506F7765722038
:107540004F6E205265736574206F63637572726548
:10755000642E2E2E2E0000000D0A45787465726E82
:10756000616C205265736574206F63637572726518
:10757000642E2E2E2E0000000D0A4E6F206E6565C3
:107580006420746F20636F6E666967757265205240
:1075900054432E2E2E2E0000024909888143014AB1
:1075A000118070470428004010B501214FF0C050F1
:1075B000FFF76AFE0120FFF761FEFBF7D8FE01200E
:1075C000FFF71AFF00BF4120FFF7F8FE0028FAD0AE
:1075D0004FF48070FFF730FF0120FFF727FF00F026
:1075E000C7F800F0BBF80121084600F077F800F07A
:1075F000B5F847F6FF7000F0A1F800F0AFF8FFF71C
:1076000023FF0446012C03D103A005F03DFE02E058
:1076100007A005F039FE10BD65787465726E2052C2
:1076200054432072756E6E696E67210D0A0000006A
:1076300073746172742065787465726E205254435D
:10764000206661696C757265210D0A000348008827
:1076500040F01000014908807047000004280040F5
:10766000034800884FF6EF710840014908807047D1
:107670000428004000210022002308480188001D42
:107680000388001F0288914204D0001D008840EA50
:107690000240704743EA0140FBE700001828004021
:1076A00001460020064A12880A40D0B2044A121F3E
:1076B00012880A4012B108B1012000E00020704792
:1076C0000428004010B50120FFF7EAFF20B1012097
:1076D000FFF762FF00F042F810BD000029B1064A32
:1076E00012880243044B1A8004E0034A1288824342
:1076F000014B1A80704700000028004008B50320A5
:107700008DF8000009208DF8010000208DF802009E
:1077100001208DF803006846FFF764FD08BD0000F6
:1077200000B50246FFF792FF100C03490880091DBF
:107730000A80FFF795FF00BD1828004000B50246FB
:10774000FFF784FFC2F3034003490880091D0A8044
:10775000FFF786FF00BD00000828004000BF034877
:10776000008800F020000028F9D07047042800406D
:10777000074800884FF6F77108400549088000BFA8
:107780000348008800F008000028F9D07047000086
:107790000428004030B503460C461546002207E099
:1077A000184600F008F824F812009B1C501C82B206
:1077B000AA42F5DB30BD0146088870472DE9F05F2D
:1077C00080468A461746B8F1006F02D33348804599
:1077D00001D3BDE8F09FFDF75FFBA8F1006B4FEA16
:1077E000DB25CBF34909C9F58064A74200DC3C46A0
:1077F0004DE04FF0006101EBC5204A142849FFF726
:10780000C9FF00260BE009EB0600254931F81000FE
:107810004FF6FF71884200D003E0701C86B2A6428A
:10782000F1DB00BFA6421BDA4FF0006101EBC5207F
:10783000FDF77EFA002608E03AF8160006EB09018B
:10784000174A22F81100701C86B2A642F4DB4FF0F2
:10785000006101EBC5204A14114900F023F804E04F
:1078600022465146404600F01DF8A74200D10FE0E5
:107870006D1C4FF000090AEB440AA044381B87B284
:10788000B7F5806F02DD4FF4806400E03C46B0E75E
:1078900000BFFDF78DFA00BF9BE700000000040861
:1078A000484600202DE9F04105460E4617460024C3
:1078B00007E036F814102846FDF784FAAD1C601C6A
:1078C00084B2BC42F5DBBDE8F08100002DE9F04751
:1078D000C4B005468A461446002746A103C9CDE92F
:1078E000010146A000680090B846B94628780E28E5
:1078F00002D1687801280FD028780F2802D1687843
:10790000012809D02878102802D16878012803D0EE
:10791000002044B0BDE8F087E01CC4B238480078CD
:107920008DF8060000208DF807008DF808402878B3
:107930008DF8090002208DF80A0004F10900C0B298
:107940008DF80B00DDE90101CDE90301E21E51468E
:1079500005A8FAF75FFC21460DF11100FCF73AFD8E
:107960000646300A8DF80000F0B28DF8010003A839
:1079700020440099C0F8051004F10900C0B28DF848
:107980000C019DF80C01C11700EB5171C910A0EB5F
:10799000C10101F0FF08B8F1000F10D0C8F10800D4
:1079A00000F0FF099DF80C1103AA88184946FAF760
:1079B0004AFC9DF80C014844C0B28DF80C019DF8BA
:1079C0000C2103A9042006F02CFE0EA0FBF79AFC64
:1079D000002706E003A8C15D0EA0FBF793FC781C0E
:1079E000C7B29DF80C01B842F4DC0CA0FBF78AFC8E
:1079F00001208EE7050200000000000000000304E3
:107A0000BC01002053656E6420746F204150503AD1
:107A10002000000025303278200000000D0A000010
:107A2000F0B5C3B0064600240025002730780128B1
:107A300043D17078022840D102A80090FE48027815
:107A40000323FE493046FCF767FE0746002F7AD035
:107A50009DF8085100BF00BF082D0BDB02A90822CA
:107A600002FB04103946FCF7C7FCA5F10800C5B2BB
:107A70004DB90BE002A9082202FB04102A46394640
:107A8000FCF7BAFC02E0601CC4B2E5E700BFECA062
:107A9000FBF738FC002406E002A8015DECA0FBF730
:107AA00031FC601CC4B29DF80801A042F4DCEAA0DD
:107AB000FBF728FC012043B0F0BD3078022843D109
:107AC0007078022840D102A80090DB480278302369
:107AD000E2493046FCF720FE0746002FB7D09DF85C
