:020000040800F2
:1020000000EE0020F121000895700008C567000867
:10201000757000083D35000841E000080000000030
:102020000000000000000000000000004D2100083A
:10203000813D00080000000091210008D1930008B4
:102040000B2200080B2200080B220008557B000819
:102050000B2200080B2200080B2200080B220008AC
:102060000B2200080B2200080B2200080B2200089C
:102070000B2200080B2200080B2200080B2200088C
:102080000B2200080B2200080B2200080B2200087C
:102090000B2200080B2200080B2200080B2200086C
:1020A0000B2200080B2200080B2200080B2200085C
:1020B0000B2200080B220008399900080B220008A7
:1020C0000B2200080B2200080B2200080B2200083C
:1020D0000B220008F1DB000801DC00080B220008DD
:1020E0004D3E00080B2200080B2200080B220008BE
:1020F0000B2200080B2200080B2200080B2200080C
:102100000B2200080B2200080B2200080B220008FB
:10211000D1DB0008E1DB00080B2200080B220008DD
:102120000B2200080B2200080B2200080B220008DB
:10213000DFF80CD000F0B6FD004800470D3601086E
:1021400000EE002080F3088870470000204B1968DB
:102150000868B0E8F00F80F30988BFF36F8F4FF085
:10216000000080F311884EF00D0E70470000000053
:1021700006480068006880F3088862B661B6BFF35D
:102180004F8FBFF36F8F00DF00BF00BF08ED00E08F
:10219000EFF30980BFF36F8F0D4B1A6820E9F00F42
:1021A000106008B54FF0100080F3118813F0E4F8C8
:1021B0004FF0000080F31188BDE8084019680868F6
:1021C000B0E8F00F80F30988BFF36F8F704700BF4E
:1021D000D0010020EFF311804FF0100181F311883E
:1021E000704780F311887047EFF305807047000057
:1021F0000648804706480047FEE7FEE7FEE7FEE7A1
:10220000FEE7FEE7FEE7FEE7FEE7FEE7F1930008E4
:1022100031210008014610B509683C22B1FBF2F3F8
:1022200002FB1313B1FBF2F11D480360B1FBF2F3A3
:1022300002FB1313B1FBF2F118224360B1FBF2F37E
:1022400002FB1313B1FBF2F183600A1D0723B2FBFB
:10225000F3F403FB142282618A0040F2B55102F6C6
:102260006C32B2FBF1F344334361B2FBF1F301FB97
:1022700013218908C1613B2903D3027D920700D055
:10228000491C0022074C13460261E25C8A4203D8D3
:10229000891A5B1C0361F8E7491CC16010BD00008E
:1022A000D4B50020E464010840EA01039B0703D091
:1022B00009E008C9121F08C0042AFAD203E011F885
:1022C000013B00F8013B521EF9D27047D2B201E047
:1022D00000F8012B491EFBD270470022F6E710B52B
:1022E00013460A4604461946FFF7F0FF204610BD84
:1022F000421E12F8013F002BFBD111F8013B02F8FE
:10230000013B002BF9D17047421C10F8011B00293A
:10231000FBD1801A704710B5002200E0521C835C8C
:102320008C5CA34201D1002BF8D1D8B2E1B2401AA3
:1023300010BD30B504460020034600E05B1C93420C
:1023400003D2E05CCD5C401BF8D030BDF0B480EA35
:102350000102D40F4200B2EB410F02D202460846FE
:1023600011464A0042D0C30DDDB2C1F3C752AD1AC7
:10237000202D35DAC1F3160141F4000204B15242B6
:10238000C5F1200602FA06F12A411044B3EBD05FF2
:1023900023D0C4B1012DA0EBC35009DCF0BC4FF039
:1023A000004202EAC352DBB200F5000000F085BB38
:1023B000400000F1807000EBC350A0F1807040EA53
:1023C000D170490009E0490841EAC071A0EBC3504F
:1023D00000F50000400800EBC350F0BC00F064BB07
:1023E0006142012202EB4101001BF6E7F0BC70479D
:1023F00081F00041AAE780F00040A7E780EA0102EF
:1024000010B502F00043400022D04A001FD0010E58
:1024100001EB1261C0F35600C2F3560240F4000013
:1024200042F40002A0FB022000047F39140400D013
:10243000401C50EA124001D44000491EC2B20C06B2
:1024400004EBD010401C4008802A02D003E000209A
:1024500010BD20F00100002900DA0020184310BD53
:1024600030B480EA010202F0004530F0004221F071
:10247000004013D090B1C30DD40DC2F31601C0F3C8
:102480001600E41A41F4000140F400027D34914248
:1024900001D3641C00E04900002C02DA30BC0020AB
:1024A00070474FF400000023914201D3891A03437F
:1024B00040084FEA4101F7D151B1914202D14FF0AA
:1024C000004105E002D24FF0010101E06FF001018F
:1024D00003EBC450284430BC00F0E6BA2DE9FE4FAF
:1024E000804681EA0300C00F0C46009021F00041B5
:1024F00023F00045B8EB0200A94105D24046214631
:1025000090461C460B46024623F00040104347D03D
:10251000270DC7F30A00C3F30A510290401A019035
:1025200040286BDAC3F3130040F4801B00989246F6
:1025300020B10023D2EB030A63EB0B0B0198594641
:10254000C0F14002504600F07EFA06460D46504665
:102550005946019A00F096FA10EB080061410024F8
:1025600087EA115284EAE7731A4340D0009A62B3B3
:10257000019A012A4FEA075215DC001B61EB0201A8
:102580004FF0004202EA0752CDE90042001C41F53B
:10259000801132462B4600F0CDFA03B0BDE8F08F33
:1025A00040462146F9E7001B61EB0201001C41F5A2
:1025B000801300185B412018A2F5001747EB0301B8
:1025C00040EAD570B6196D4111E06D084FEA360644
:1025D00045EAC0754FEA0752001B61EB0201001C7F
:1025E00041F5801149084FEA300000195141324647
:1025F0002B4603B0BDE8F04F00F08DBA00980122E1
:1026000040000023D0EB020263EBE0730098214608
:102610004FEAE074B8EB000061EB0401E9E783F0F6
:1026200000435BE781F0004158E72DE9FE4F81EA66
:10263000030404F0004421F0004100944FF0000B2B
:1026400023F0004350EA01045ED052EA03045BD059
:10265000C3F30A54C1F30A552C44A4F2F334019491
:10266000A0FB0254C1F3130141F48011C3F313031F
:1026700043F4801301FB024400FB034E840A970AD3
:1026800044EA815447EA8357A4FB076802958D0A00
:1026900005FB07854FEA932C04FB0C542705029D8C
:1026A0004FEA065847EA1637B5EB08056EEB070CFC
:1026B000870E920E47EA811742EA8312A7FB0201B6
:1026C000B6EB0B0164EB00042B0D43EA0C335E18F0
:1026D00044EB1C50DA465146E7FB0201C5F31304F4
:1026E0004FEA0B3343EA14534FEA0432019C43EAA6
:1026F0000603A4F10C040294009CCDE900B400F0A0
:1027000019FA03B0BDE8F08F00200146F9E72DE982
:10271000F04D81EA030404F0004B21F0004514461B
:102720004FF0000A23F0004150EA050220D054EA9D
:1027300001021DD0C5F30A570246C5F31303C1F3C6
:102740001300C1F30A5640F4801543F48013A7EB3D
:102750000608101BD64608F2FD3873EB050002D3BD
:1027600008F1010801E092185B41B8F1000F03DAAB
:1027700000200146BDE8F08D00204FF48011064690
:1027800084460EE0171B73EB050705D3121B63EBA2
:10279000050306434CEA010C49084FEA3000921841
:1027A0005B4150EA0107EDD152EA030012D082EA00
:1027B000040083EA0501084305D0101BAB4106D293
:1027C0000122002306E000224FF0004302E06FF0F8
:1027D000010253101AEB06004CEB085110EB0A00F3
:1027E00041EB0B01BDE8F04D00F095B9C10F80EA57
:1027F000E0700844CA079623002100F05EB99623D2
:102800000022114600F059B90EB5C10F80EAE07000
:102810000844CA07002140F233438DE80E000A46FF
:102820000B4600F087F903B000BD0EB540F233410E
:1028300002910021CDE900110A460B4600F07AF919
:1028400003B000BD00F0004220F00040C10DC0F315
:10285000160040F400007F2901DA00207047962915
:1028600003DCC1F19601C84001E096398840002A96
:10287000F4D04042704720F00040C10DC0F3160074
:1028800040F400007F2901DA00207047962903DC1C
:10289000C1F19601C8407047963988407047C1F32E
:1028A0000A5210B5C1F3130140F2FF3341F4801115
:1028B0009A4201DA002010BD40F233439A42A2F25C
:1028C000334203DC524200F0CDF810BD904010BD01
:1028D00000F0004230F000400AD0C10D01F56071F7
:1028E000C0F3160042EA0151C20840071143704785
:1028F000002001467047000030B5041E71F100044D
:1029000004DB4FF00044404264EB0101141E73F1FC
:10291000000405DB1C464FF00043524263EB040306
:102920008B4208BF824230BD30B5041E71F10004F5
:1029300004DB4FF00044404264EB0101141E73F1CC
:10294000000405DB1C464FF00043524263EB0403D6
:10295000994208BF904230BD01F0004330B421F0ED
:10296000004150EA010206D00A0DA2F56072C1F3DF
:102970001301002A02DC30BC00207047440F44EAF7
:10298000C104C100E01830BC00EBC25000F08CB8AC
:10299000002801DBC0F10040002901DBC1F100414A
:1029A00081427047002801DBC0F10040002901DBB3
:1029B000C1F100418842704730B50B460146002006
:1029C0002022012409E021FA02F59D4205D303FAF1
:1029D00002F5491B04FA02F52844151EA2F1010272
:1029E000F1DC30BD2DE9F05F0546002092469B46A4
:1029F00088460646814640241BE028464146474615
:102A0000224600F02FF853465A46C01A914110D37F
:102A100011461846224600F016F82D1A67EB0108F9
:102A20004F4622460120002100F00DF817EB000967
:102A30004E41201EA4F10104DFDC484631462A46FF
:102A40004346BDE8F09F202A04DB203A00FA02F159
:102A5000002070479140C2F1200320FA03F319438C
:102A600090407047202A04DB203A21FA02F000212E
:102A7000704721FA02F3D040C2F12002914008438E
:102A800019467047202A06DBCB17203A41FA02F09C
:102A900043EAE07306E041FA02F3D040C2F12002BB
:102AA00091400843194670470029A8BF7047401C51
:102AB000490008BF20F00100704710B4B0FA80FC54
:102AC00000FA0CF050EA010404BF10BC704749B191
:102AD000CCF1200421FA04F411FA0CF118BF012101
:102AE00021430843A3EB0C01CB1D4FEA00614FEAE1
:102AF000102042BF002010BC704700EBC3501044B0
:102B00000029A4BF10BC7047401C490008BF20F03A
:102B1000010010BC704710B5141E73F1000408DAF0
:102B2000401C41F1000192185B411A4301D120F091
:102B3000010010BD2DE9F04D92469B4611B1B1FA4E
:102B400081F202E0B0FA80F220329046FFF77BFF7C
:102B500004460F4640EA0A0041EA0B0153465A4632
:102B6000084313D0114653EA010019D0C8F14002BE
:102B70005046FFF777FF05460E46504659464246F7
:102B8000FFF761FF084305D0012004E020463946E5
:102B9000BDE8F08D0020054346EAE0762C4337433C
:102BA0000A986305E40AA0EB08000022FD0A44EA43
:102BB00047540A3002D500200146E9E70105101903
:102BC0006941DDE9084500196941BDE8F04DA2E71A
:102BD0002DE9F04D00231A461B1A8A4103DB002021
:102BE0000146BDE8F08DC1F30A52C1F3130141F46F
:102BF00080154FF0000BD10702D100186D41521E15
:102C00000027044640F2FF11384601EB620A3E46B7
:102C10008046024600204FF48011FFF723FFC219BF
:102C20007141BB1846EB0100B4EB030C75EB000CD3
:102C300004D3E41A65EB000517460E46241908F183
:102C400001006D4180463428E3DDF91946EB0600AA
:102C5000091BA84103D24FF0FF32134601E00022C6
:102C600013461BEB070046EB0A51BDE8F04DFFF79A
:102C700052BFC1F30A52C1F3130140F2FF3341F4D2
:102C800080119A4202DA00200146704740F2334335
:102C90009A42A2F2334202DC5242FFF7E3BEFFF750
:102CA000D2BE0000064C074D06E0E06840F001038C
:102CB00094E8070098471034AC42F6D3FFF73CFA8B
:102CC000506701087067010870B58C1810F8015B37
:102CD00015F0070301D110F8013B2A1106D110F8B5
:102CE000012B03E010F8016B01F8016B5B1EF9D1B9
:102CF0002B0705D40023521E0DD401F8013BFAE73F
:102D000010F8013BCB1A921C03E013F8015B01F8A9
:102D1000015B521EF9D5A142D8D3002070BD70B519
:102D200004460E46154604223146204601F0A8F915
:102D30000422294604F1080001F0A2F970BD7CB517
:102D400006460C4615462068009028680190082227
:102D50006946304601F0FEFB7CBD00007CB50446B0
:102D60000025112010F0B0FD051E00D17CBDE078DB
:102D7000A178CDE900106378227803A128460BF0F2
:102D8000D9FE2846F2E7000025642E25642E25642E
:102D90002E25640010B5012012F052FC0349086092
:102DA0000846006808B900BFFEE710BD30000020EB
:102DB0001FB50020304A0623CDE90120009303907F
:102DC00003464FF480722DA12F4812F0AFFE002071
:102DD0002E4A0723CDE901200093039003464FF4C8
:102DE000C0622BA12D4812F0A1FE00202C4A052321
:102DF000CDE901200093039003464FF4207229A1EE
:102E00002D4812F093FE00202C4A0423CDE9012026
:102E10000093039003464FF4207229A12E4812F02C
:102E200085FE00202D4A0323CDE901200093039065
:102E300003464FF420722AA12C4812F077FE00209E
:102E40002B4A0223CDE901200093039003464FF45F
:102E5000807228A1294812F069FE0020284A012327
:102E6000CDE901200093039003464FF4807225A121
:102E7000274812F05BFE1FBD40010020573535305A
:102E8000305F41505000000045E000080C01002078
:102E90005461736B5F41707000000000699B000813
:102EA0001C0100205461736B5F55707065725F4345
:102EB0006F6D70757465720051BB000814010020BD
:102EC0005461736B5F48617264776172655F4D6FC7
:102ED0006E69746F72000000919E00083801002036
:102EE0005461736B5F4D543230303000C9A4000818
:102EF000F00000205461736B5F544800D1BA0008A1
:102F00003C0100205461736B5F416C61726D000085
:102F10008D9A0008704700002DE9F04105460E46E5
:102F20004FF0000800271E2010F0CEFCB0F1000882
:102F300004D0112010F0C8FC071E02D10020BDE80B
:102F4000F08100240AE02A5D06A138460BF0F2FD6C
:102F500039464046FFF7CCF9601CC4B2B442F2DBFC
:102F60004046ECE72564000010B5012004F068FC41
:102F7000002004F065FC10BD08B50146002000905B
:102F8000034800900098084400900098008808BD0D
:102F9000006C004008B500220092044A0092009A9A
:102FA00002440092009A116008BD0000006C0040CD
:102FB0002DE9F74F8EB0074615464FF00009002067
:102FC0000D9082460A9009973C46DDF83C80834686
:102FD000089000260790069005900490099F3C46B3
:102FE0006EE2F8480078012823D1E01E00EB800053
:102FF00005EB4000F44951F8200004900498FFF7D5
:1030000067FC0022F14BCDE90201FFF775FC10D3FC
:103010000498FFF75DFC00224FF08043CDE90201E8
:10302000FFF782FC05D9444502D111B0BDE8F08F0D
:1030300044E2E748C07B012803D0E548407D0128F1
:1030400012D102F045FA0020E149887348754874AE
:103050008874C87406F008FA0220DD49C87229464F
:10306000204605F059F8E0E7D949486FFFF730FCF2
:103070000022D84BCDE90201FFF73EFC03D200202D
:10308000D3490873D1E70520D149C872012088735C
:10309000D14948710421D04880F843101020CE490E
:1030A00081F842004FF47A70604305EBC50101EBF3
:1030B000051100EB81000C90C8A10BA80C9A0BF035
:1030C00039FD02220BA90AA806F058F99DF829003B
:1030D000C14981F824009DF82810BF4880F82510C8
:1030E000002180F8261080F827102A462146BCA02F
:1030F0000AF048FDB84890F8252090F82410C6A0A2
:103100000AF040FD002007900690059004F0F2FFC1
:1031100006460A2196FBF1F000F0FF0B96FBF1F258
:1031200001FB1260C0B208904EB14FF6FF708642AC
:1031300005D0A34503DD0898A84200D1BEE101F007
:103140005BFE0D90BEA00D990AF01CFD41F270705F
:1031500011F0BCFF03F09CF8432002F031FB0D900E
:103160000D98801C58B90020079006904FF08140C0
:103170000590611CC8B2294604F0CEFF9EE1944838
:10318000807D012860D1B6A0FFF7C4FE9048C06ED4
:1031900007908F48006F06908D48C06F0590B54826
:1031A000C078012803D0B348C07C01280FD101208A
:1031B0008749C87302F08CF911208549C872002034
:1031C000887348752946204604F0A6FF2DE7A948D4
:1031D0004078012814D17E49C87302F079F9112092
:1031E0007B49C872002088734875079006904FF09D
:1031F00081400590611CC8B2294604F08DFF14E798
:103200009C48407C012803D09A48C07A012841D1CB
:10321000002098494874C8726D48C06E07906C4889
:10322000006F06906A48C06F059002F051F90520C2
:103230006749C8720120887300204875611CC8B2B4
:10324000294604F069FF25E08BA0FFF763FE1120FB
:103250005F49C872002088734875079006904FF048
:10326000814005908348407801280ED1C87302F050
:103270002FF911205649C872002088734875611CC7
:10328000C8B2294604F048FF04E0611CC8B22946D0
:1032900004F042FF4FF47A6011F018FF02F0F8FFDB
:1032A000432002F08DFA8146B9F1010F08D1484858
:1032B000C06E07904648006F06904548C06F059065
:1032C0004FF4FA6011F002FF0798FFF701FB0022AC
:1032D0006E4BCDE90001FFF71AFACDE90201FFF7C5
:1032E0003BFBE11E01EB810105EB4101684A42F81D
:1032F0002100E11E01EB810105EB4101654A0698C1
:1033000042F82100E11E01EB810105EB41012E4A4B
:10331000059842F8210002F0D5FF4FF4FA7011F041
:10332000D5FE4FF00109B9F1000F49D0002028491E
:10333000487559A0FFF7EEFD2548C07B012803D052
:103340002348407D012810D1002021498873487509
:1033500048748874C87406F087F802201C49C87243
:103360002946204604F0D8FE5FE606F07DF80520E9
:103370001749C8720120887344451BDA4FF0000AD0
:1033800014E01348C07B012803D01148407D012878
:1033900005D1611CC8B2294604F0BEFE45E6642092
:1033A00011F094FE0AF1010000F0FF0ABAF1320FA9
:1033B000E7DB82E0611CC8B2294604F0ADFE34E6CA
:1033C00074E0000024010020601200200000F03FA3
:1033D0004C02002000004440F31E0020255800004D
:1033E000207363616E31CFD6D4DAB5C4C9A8C6B52F
:1033F000C6B5B5E33A2074656D705F706F696E7421
:103400003D20256420696E6465785F6465633D20B6
:103410002564200A0000000020C9A8C6B5CFC2B7A5
:10342000A2B5C47363616E315F667265715F547873
:103430003A20253032582025303258200000000034
:1034400020315F54305F4754323030305F456D6912
:1034500074282920466C61673D202564200A0000FD
:1034600053776565702F2FB7A2C9E4B3C9B9A60D0C
:103470000A000000D303002053776565702F2FB733
:10348000A2C9E4CAA7B0DC0D0A0000000000244075
:1034900060160020601A002053776565702F2FB7E3
:1034A000A2C9E4CDA3D6B90D0A0000000520074942
:1034B000887107A0FFF72EFDB7E500BF601CC4B2FE
:1034C00044457FF78EAD00BFAFE50000D303002079
:1034D00053776565702073746F702035206E6F2090
:1034E000726573706F6E642E0D0A000070B502F085
:1034F00099FD0446206806490840B0F1005F06D1F6
:1035000072B665682E462068FEF71CFEB04770BD97
:103510000000FE2F70B502F0F1FD04462068064958
:103520000840B0F1005F06D172B665682E4620688B
:10353000FEF708FEB04770BD0000FE2F00BFFEE79B
:10354000F0B5ADF5057D04460E46002520A0FFF739
:10355000E1FC30460FF088F907461FB902200DF54F
:10356000057DF0BD314601A802F06AFD4FF484727A
:1035700001A943A8FEF798FE9DF80C0108B90520A3
:10358000EDE743A8C2789DF80E111CA0FFF7C2FC1E
:103590009DF80E01207043A8C078607020A0FFF74E
:1035A000B9FC002506E044A8415D23A0FFF7B2FC6A
:1035B000681CC5B29DF81002C01EA842F3DC04A02E
:1035C000FFF7A8FC43A800F0CBF907463846C6E74A
:1035D0000D0A3D3D3D3D3D3D3D3D3D3D3D3D3D3D7E
:1035E0003D3D3D3D3D3D3D3D3D3D3D3D3D3D3D3D0B
:1035F0003D3D3D3D3D3D3D0D0A00000043414E5FD8
:10360000646174615F6275662E46756E635F636F99
:103610006465093D2025303258253032580D0A00A6
:1036200043414E5F5370656369666963204461740A
:1036300061093D20000000002530325820000000C4
:103640002DE9F04105460E460024002705E0295DDE
:1036500038460CF00DFC0746641CB442F7D33846DC
:10366000BDE8F0812DE9F84F05460C46904600274D
:103670000026B34600BF84E0E05D05287BD1781CBE
:10368000205C022877D1381D215CF81C205C01EBFE
:10369000002086B2B04504DA4FF0020B5846BDE870
:1036A000F88FF01D205C032861D106F10800205C32
:1036B00004285CD160792870A0796870A0194079DD
:1036C0008DF80000A01980798DF801009DF80100A7
:1036D0009DF8001000EB01201FFA80FA3146601DB2
:1036E000FFF7AEFF8146D1453DD14FF0010B287861
:1036F0000E2814D16878012811D1207A2449087045
:10370000607A4870D4F80A00C1F802004FF40062F1
:1037100004F10E011E48801DFEF7C6FD20E028784A
:103720000F2815D16878012812D1207A194908701C
:10373000607A4870A17A17488170E17AC170217B64
:103740000171607B13494871A17B1248817107E0C8
:103750002878102802D16878012801D04FF0020B98
:1037600058469CE707E04FF0020B584697E74FF0AA
:10377000020B584693E7781C87B2A8F101001FFAA4
:1037800080F8B8F1080F3FF777AF022087E7000015
:103790002A2D002001010020014609B9094870477F
:1037A000012901D10848FAE7022901D10020F6E7F2
:1037B000032901D10548F2E7042901D10448EEE7C5
:1037C0000020ECE7EB460020134C00203B4E00208D
:1037D0006352002008B525208DF8000005208DF8E3
:1037E000010000208DF8020001208DF803006846DA
:1037F00003F072FC26208DF8000004208DF80100F3
:1038000000208DF8020001208DF80300684603F0C7
:1038100063FC34208DF8000002208DF801000020A8
:103820008DF8020001208DF80300684603F054FC77
:1038300035208DF8000001208DF8010000208DF862
:10384000020001208DF80300684603F045FC08BD26
:10385000010AC2B241EA0220704700002DE9FE4F82
:1038600007468A4693461D460C9C38A103C9CDE9FC
:10387000010138A0006800904FF00008C1463648AA
:10388000007818B1344800788DF806009DF80600DD
:1038900018B9324800788DF80600E81CC0B28DF8DF
:1038A000070038788DF8080078788DF809009DF8C1
:1038B0000710C81CC11700EB5171C9109DF80720F3
:1038C00002EB81010831C9B28DF80A10019820601D
:1038D000BDF80800A0809DF80A00A0712A46514654
:1038E000E01DFEF7E1FCE91C201DFFF7A9FE0646DE
:1038F000300A8DF80000F0B28DF8010060190099CF
:10390000C0F8071005F10B0084F8000194F80001DD
:10391000C11700EB5171C910A0EBC10101F0FF0804
:10392000B8F1000F0ED0C8F1080000F0FF0994F8BC
:10393000001108194946FEF7D0FC94F800014844EC
:1039400084F800019DF80700BDE8FE8F0502000025
:1039500000000000000003048D0800204C0200203D
:1039600008B50146002000908878012824D1C87845
:10397000012821D1F7480A790270F7480A7980F8BE
:1039800026200246D1F805001060D1F809005060E9
:10399000D1F80D009060D1F81100D060D1F8150079
:1039A0001061D1F819005061D1F81D009061D1F873
:1039B0002100D061012008BD8878022849D1C8784B
:1039C000012846D1E3480078FF2807D10879E14A69
:1039D00010700879E14A10700320ECE7DD480078A8
:1039E00038B90879DB4A10700879DC4A1070032076
:1039F000E1E70879D74A1278904225D148790090BA
:103A00009DF800000006D64A1060887900901046A4
:103A100000689DF8002000EB0240D14A1060C87990
:103A20000090104600689DF8002000EB0220CC4A70
:103A30001060087A0090104600689DF8002010443D
:103A4000C74A10600120B6E70879C44A1070032005
:103A5000B1E78878032826D1C878012823D10879CE
:103A6000BC4A127890421CD14879BE4A1070CB886B
:103A7000A2F80530087AD071D1F809309360D1F8F6
:103A80000D30D360D1F811001061B1F815305380BA
:103A9000C87D1071AF4A8B695360888B10810120FB
:103AA00089E7032087E78878042812D1C87801289D
:103AB0000FD10879A74A1278904208D1A54AD1F8C7
:103AC00005305360B1F809001081012073E703202D
:103AD00071E78878052810D1C87801280DD10879B8
:103AE0009C4A1278904206D19F4AB1F80500A2F88C
:103AF000010001205FE703205DE78878062812D1E6
:103B0000C87801280FD10879924A1278904208D1DA
:103B1000904AD1F805305360B1F8090010810120B6
:103B200049E7032047E78878072811D1C87801289A
:103B30000ED10879874A1278904207D1854AD1F888
:103B40000630536048891081012034E7032032E7B2
:103B5000887808280BD1C878012808D108797D4ACF
:103B60001278904201D1012025E7032023E78878CD
:103B7000092815D1C878012812D10879754A127818
:103B800090420BD1794A48795070921CD1F8063096
:103B90001360D1F80A00506001200CE703200AE707
:103BA00088780A280ED1C87801280BD10879694A8B
:103BB0001278904204D16E4A487950700120FAE69A
:103BC0000320F8E688780B2810D1C87801280DD199
:103BD0000879604A1278904206D1664AB1F8050029
:103BE000A2F801000120E6E60320E4E688780C282C
:103BF00010D1C87801280DD10879564A1278904220
:103C000006D15D4AB1F80500A2F801000120D2E614
:103C10000320D0E688780D287ED1C8780128FBD112
:103C200008794C4A1278904277D14879534A5070BB
:103C300088799070CA795148C2700246088990808C
:103C40004889D080087B1072D1F80D00C2F80900B5
:103C5000488AD081888A1082887D9074D1F81700B4
:103C6000C2F81300888B1083C88B50832020405CDF
:103C70001077D1F82100C2F81D00C88C5084088D3F
:103C8000908491F82A0082F82600D1F82B00C2F81F
:103C90002700088E9085488ED08591F8340082F8F0
:103CA0003000D1F83500C2F83100488FD086888FB7
:103CB000108791F83E0082F83A00D1F83F00C2F830
:103CC0003B00B1F84400A2F84000B1F84600A2F869
:103CD000420091F8480082F84400D1F84900C2F847
:103CE0004500B1F84E00A2F84A00B1F85000A2F821
:103CF0004C0091F8520082F84E00D1F85300C2F8FF
:103D00004F00B1F85800A2F85400B1F85A00A2F8D8
:103D1000560091F85C0001E01AE017E082F85800C4
:103D2000D1F85D00C2F85900B1F86200A2F85E0057
:103D3000B1F86400A2F8600091F8660082F86200B1
:103D4000D1F86700C2F86300012034E6032032E6B0
:103D5000042030E64C020020E90300208D080020FA
:103D600004000020100400202A0400203304002056
:103D70000C0000200E000020110000203D04002057
:103D80007047000038B505462F480078401CC0B287
:103D90008DF800002C484078401CC0B28DF801001E
:103DA00029488078401CC0B28DF802002648C078AF
:103DB000401CC0B28DF803006A460C2128460AF068
:103DC00059FE0122002128460AF014FE0122114664
:103DD00028460AF00FFE052003F04EF9032128467D
:103DE00003F0E6FF132806D01022012128460AF02E
:103DF00001FE002038BD0422012128460AF0FAFD08
:103E000000BF00240221284603F0D2FF044624B15B
:103E10002246022128460AF0EDFD052003F02CF988
:103E200004F00800082801D10020E3E70621284615
:103E300003F0BEFFFF2806D01022012128460AF019
:103E4000D9FDFF20D6E7DCE77900002010B54FF45C
:103E5000006000F011F830B14FF4006000F006F897
:103E600001200149087010BDB5000020014908601B
:103E70007047000014040140014600200022074B57
:103E80001B6803EA0102054B14331B680B4013B196
:103E90000AB1012000E0002070470000000401404A
:103EA000002123498279002A3AD00A461268036821
:103EB0009A430B461A600A1D126803689A430B1D49
:103EC0001A60027911440A6803681A430A60184AA2
:103ED0000832126803689A43154B08331A601A1D9A
:103EE000126803689A43124B0C331A604279102A05
:103EF0000ED11A1F126803681A430D4B08331A605B
:103F00001A1D126803681A43094B0C331A600DE03E
:103F10000749427911440A6803681A430A6005E0B8
:103F2000027911440A6803689A430A6070470000E6
:103F3000000401400149C8607047000000200240B1
:103F400030B5044604254FF4302000F0B9F805469A
:103F5000042D17D10C48006940F002000A4908619D
:103F600008464461006940F0400008614FF4302089
:103F700000F0A6F805460448006941F6FD710840C6
:103F800001490861284630BD0020024004200B4949
:103F9000C96801F0010109B101200EE00749C968B3
:103FA00001F0040109B1022007E00449C96801F0E9
:103FB000100109B1032000E00420704700200240F6
:103FC0000348006940F08000014908617047000023
:103FD0000020024070B504460D460426F00200F0B1
:103FE0006FF80646042E11D10948006940F001001F
:103FF000074908612580F00200F062F8064604488F
:10400000006941F6FE71084001490861304670BD03
:104010000020024078B506460C460425002000909A
:10402000E80200F04DF80546042D24D1134800693C
:1040300040F00100114908613480E80200F040F8C6
:104040000546042D10D1B01C0090200C009908806A
:10405000E80200F035F805460848006941F6FE71AF
:1040600008400649086106E00448006941F6FE710F
:10407000084002490861284678BD0000002002403F
:1040800030B503460C461546002206E0184600F0FF
:1040900007F8A0549B1C501C82B2AA42F6DB30BD2C
:1040A0000146086880B270470248034948600348E7
:1040B000486070472301674500200240AB89EFCD7F
:1040C00000B502460423FFF761FF034603E0FFF754
:1040D0005DFF0346521E012B01D1002AF7D102B920
:1040E0000523184600BD000070B5BCB000250024B3
:1040F000674C206867490860084600686649C870D0
:10410000241D00BF05E02068644941F82500241DF6
:104110006D1CB5F5E97F02D261488442F3D30025D6
:1041200005E020685F4941F82500241D6D1C0A2D1B
:1041300002D25B488442F4D34FF4697257495A481B
:10414000FEF7B2F84FF4697258495948FEF7ACF8D7
:10415000002608E0564951F82600FEF78CFBC0B255
:104160000DF80600761CE92EF4DB50224E4951482A
:10417000FEF79AF850224C4950314F48FEF794F818
:1041800050224949A0314D48FEF78EF85022464949
:10419000F0314B48FEF788F850224A494A48FEF76A
:1041A00083F85022474950314848FEF77DF85022A5
:1041B0004449A0314648FEF777F850224149F03192
:1041C0004448FEF771F8502243494448FEF76CF822
:1041D0005022414950314248FEF766F850223E498C
:1041E000A0314048FEF760F830223B49F0313E48AC
:1041F000FEF75AF8142269462E485030FEF754F85C
:10420000142205A92C485030FEF74EF814220AA9B2
:104210002A485030FEF748F814220FA92848503099
:10422000FEF742F8142214A927485030FEF73CF854
:10423000142219A925485030FEF736F814221EA979
:1042400023485030FEF730F8142223A9214850307B
:10425000FEF72AF8142228A920485030FEF724F847
:1042600014222DA91E485030FEF71EF8142232A940
:104270001C485030FEF718F81B4850303799016041
:10428000389941603999816001203CB070BD0000CF
:1042900000280308540100204C020020B0540020E4
:1042A000FF2F0308601E00206012002054580020D9
:1042B00060160020F4090020620A0020D00A0020C5
:1042C0003E0B0020A0130020AC0B00201A0C002095
:1042D000880C0020F60C0020E0140020640D002063
:1042E000D20D0020400E0020AE0E00200021054916
:1042F0000868054A1060091D0868044A107000200B
:1043000070470000003003085801002062010020BF
:104310002DE9F041074688461446002500260B2C5F
:1043200025D2DFE804F02406090C0F1215181B1E15
:1043300021001B4806681EE01A4806681BE01A4860
:10434000066818E01948066815E01948066812E082
:10435000184806680FE0184806680CE01748066819
:1043600009E01748066806E01648066803E016A04C
:10437000FEF7D0FD00BF00BF1EB94FF0FF30BDE813
:10438000F0813D46002004E0296806F8011B2D1D40
:10439000401C642801DA4545F6D30020EFE7000011
:1043A00064010020680100206C01002070010020E1
:1043B00074010020780100207C0100208001002091
:1043C00084010020880100204E6F206D61746368B5
:1043D00020706172616D65746572210D0A000000C4
:1043E0002DE9F84F06460F4614464FF00008002509
:1043F000002000904FF0040A4FF0010B0B2C57D215
:10440000DFE804F056060E161E262E363E464E00F7
:1044100004EB840042004D494D48FDF745FF47E05D
:1044200004EB8400420049494948FDF73DFF3FE065
:1044300004EB8400420045494548FDF735FF37E06D
:1044400004EB8400420041494148FDF72DFF2FE075
:1044500004EB840042003D493D48FDF725FF27E07D
:1044600004EB8400420039493948FDF71DFF1FE085
:1044700004EB8400420035493548FDF715FF17E08D
:1044800004EB8400420031493148FDF70DFF0FE095
:1044900004EB840042002D492D48FDF705FF07E09D
:1044A00004EB8400420029492948FDF7FDFE00BFC6
:1044B00000BFFFF7F9FDB81B401CC00A0090342074
:1044C000FFF738FD4FF0000808E04FF4006101FBF2
:1044D0000860FFF735FD824608F101080098804525
:1044E00002D2BAF1040FF0D035464FF0000908E0CF
:1044F000174810F809102846FFF78CFD2D1D09F10B
:10450000010904EB84004000484504DDBD4202D2AD
:10451000BAF1040FECD0FFF753FD3546002008E058
:1045200029680B4A125C914201D04FF0000B2D1DFF
:10453000401C04EB84014900814204DDBD4202D2EB
:10454000BBF1000FECD15846BDE8F88F41040020C4
:10455000305C00202DE9F84F0546884616460024B9
:10456000A1460027002000904FF0040A4FF0010BF5
:10457000FFF79AFD012000EBD62000903520FFF7D1
:10458000D9FC00BF08E04FF4006101FB0950FFF7C0
:10459000D7FC824609F101090098814502D2BAF19F
:1045A000040FF0D02F46002407E018F80410384616
:1045B000FFF710FDBF1C601CC4B2B44202D2BAF1B6
:1045C000040FF2D0FFF7FCFC2F46002409E0386806
:1045D00018F80410884201D04FF0000BBF1C601C7B
:1045E000C4B2B44202D2BBF1000FF0D15846BDE8CC
:1045F000F88F000030B5002101231949002005E0A3
:104600000C68184D45F82040091D401C092804DAA3
:10461000154CA14201D2002BF2D10868134C206046
:1046200020460068124CA0700E480078114C84F8A7
:104630002600204690F826000D4C2070094840685E
:104640000C4C20602246022005E0121D054C54F857
:1046500020401460401C0828F7DD012030BD000018
:10466000002003088C540020FF270308500100207D
:104670004C020020E903002030B500228B071C0FFC
:104680000F2303FA04F20B4B8C1053F8243093439E
:10469000084C8D1044F8253023468C1053F82430F4
:1046A0008C07240F00FA04F42343024C8D1044F8C5
:1046B000253030BD080001402DE9F04102460025BB
:1046C0000026002000230024002791F803C00CF0EE
:1046D0000F0591F803C00CF0100CBCF1000F03D0D3
:1046E00091F802C04CEA050591F800C0BCF1000F3A
:1046F00031D0146800202BE04FF0010C0CFA00F3CD
:10470000B1F800C00CEA03069E4220D183004FF0AE
:104710000F0C0CFA03F7BC4305FA03FC4CEA040443
:1047200091F803C0BCF1280F06D14FF0010C0CFA30
:1047300000FCC2F814C00AE091F803C0BCF1480FB5
:1047400005D14FF0010C0CFA00FCC2F810C0401C5F
:104750000828D1D31460B1F800C0BCF1FF0F34DDDC
:10476000546800202EE000F1080C4FF0010808FA10
:104770000CF3B1F800C00CEA03069E4221D183007D
:104780004FF00F0C0CFA03F7BC4305FA03FC4CEA9C
:10479000040491F803C0BCF1280F05D100F1080C06
:1047A00008FA0CF8C2F8148091F803C0BCF1480F65
:1047B00007D100F1080C4FF0010808FA0CF8C2F814
:1047C0001080401C0828CED35460BDE8F081000062
:1047D000F0B50A46002300240021002500F0004621
:1047E000B6F1004F02D11D4EF16901E01B4E716818
:1047F000C0F3034583B200F44016B6F5401F08D15C
:1048000021F07061154E766826F07066134F7E6059
:1048100012E000F48016B6F5801F06D1032606FAD2
:1048200005F4A14341F0706106E0460D360103FA3C
:1048300006F6B14341F0706122B1460D360103FA2C
:1048400006F6314300F00046B6F1004F02D1034EA8
:10485000F16101E0014E7160F0BD00000000014017
:10486000416170470161704710B5104809F08AF93D
:1048700001F028FD41F2883010F028FC01F0BAFC6C
:10488000322010F023FC11200949C8720120094987
:104890004870002006498873487548748874C87445
:1048A00004F0E2FDFE200449487010BD886501084F
:1048B0004C020020D30300201A00002010B5032072
:1048C0000BF09AFA00200BF097FA10BD10B501F02A
:1048D000F9FC322010F0FAFB01F08CFC322010F0D1
:1048E000F5FB01248CB1FE200B494870FD200B49DB
:1048F00048700DF0D5FD012803D111200849C87278
:1049000009E004200649C87205E0FD20024948700C
:1049100007200449887110BD2300002021000020D9
:104920004C020020D30300202DE9F04F93B0044641
:104930008B4600250026A946AA4614F8290FADF893
:1049400040006078ADF84200A078ADF84400E0780F
:10495000ADF84600207AADF83800607AADF83A003C
:10496000A07AADF83C00E07AADF83E00207CADF8CE
:104970003000607CADF83200A07CADF83400E07C03
:10498000ADF83600207EADF82800607EADF82A0034
:10499000A07EADF82C00E07E293CADF82E00002072
:1049A00038E010A931F8101001EB81014FF6FF72C9
:1049B00002EA4102F54901EB40010A800EA931F8F3
:1049C000101001EB81014FF6FF7202EA4102EF493C
:1049D000083101EB40010A800CA931F8101001EBFD
:1049E00081014FF6FF7202EA4102E849103101EB02
:1049F00040010A800AA931F8101001EB81014FF63D
:104A0000FF7202EA4102E149183101EB40010A80DC
:104A1000411CC8B20428C4DB207D00F00100DC4941
:104A200081F87200207DC0F3400081F87700207D7E
:104A3000C0F3C00081F87300207DC0F3801081F8BE
:104A40007600207DC00981F87100217DD1A009F098
:104A500099F8207DD64981F82000A07BCB49803988
:104A600081F85900607BD2498875217BD048C17597
:104A7000E17A0176A17A4176607D00F00100CC49AF
:104A800081F82100607DC0F3400081F82200607D44
:104A9000C0F3800058B90120BC49803981F84C002E
:104AA000607DC0F38001C3A009F06CF808E0607D70
:104AB000C0F3800020B10020B449803981F84C0057
:104AC000A07FBB494871E07D81F82400A17DB848F2
:104AD00080F825100021C184607EB54981F82E0040
:104AE000217EB34880F82F1000210186E07EB04976
:104AF00081F83800A17EAE4880F839100021418746
:104B000090F8252090F82410AFA009F03BF8607FC2
:104B1000A74981F84200217FA54880F84310207FF3
:104B2000617F40EA0120A249A1F84400A07F974993
:104B300080390876E17C0906A27C01EB0241627CA7
:104B400001EB0221227C8818FDF75EFE0022A74BB4
:104B5000CDE90401FDF7DBFD0746FDF7FDFE9449B5
:104B6000C861E0798872A1799148C172607A9049F0
:104B70000874217A8E48C1728448803890F85800B1
:104B8000012803D18A4981F8220003E000208849E6
:104B900081F822002934E179A2798818FDF734FEE2
:104BA0000022934BCDE90001FDF7B1FD0022904BAF
:104BB000CDE90201FDF733FD074600228D4BFDF7DD
:104BC00034FDCDE90401FDF76AFE70498039A1F892
:104BD0005000E17BA27B8818FDF716FE07460022F5
:104BE000834BFDF794FD0022814BCDE90001FDF7D9
:104BF00016FD00227F4BCDE90201FDF716FDCDE940
:104C00000401FDF74CFE81B260488038A0F85210D4
:104C1000E17DA27D8818FDF7F7FD07460022744B61
:104C2000FDF775FD0022724BCDE90001FDF7F7FCA1
:104C30000022704BCDE90201FDF7F7FCCDE904013C
:104C4000FDF72DFE81B251488038A0F85410E17F65
:104C5000A27F8818FDF7D8FD0022654BCDE9000141
:104C6000FDF755FD0022624BCDE90201FDF7D7FCAF
:104C7000074600225F4BFDF7D8FCCDE90401FDF7A4
:104C80000EFE81B241488038A0F8561014F80A0C84
:104C90003E49803981F85A0014F8140C293CC0F3BD
:104CA000400081F85800002729E010A931F81700CA
:104CB000FDF7A5FD80462946FDF748FB05460EA9F0
:104CC00031F81700FDF79BFD80463146FDF73EFBAE
:104CD00006460CA931F81700FDF791FD80464946BC
:104CE000FDF734FB81460AA931F81700FDF787FD6F
:104CF00080465146FDF72AFB8246781CC7B2042F36
:104D0000D3DB2846FDF7E4FD0022384BCDE9040152
:104D1000FDF7FDFC0746FDF71FFE06903046FDF748
:104D2000D7FD07460022314BFDF7F1FCCDE9040128
:104D3000FDF712FE07904846FDF7CAFD00222B4BF7
:104D4000CDE90401FDF7E3FC0746FDF705FE0890F9
:104D50005046FDF7BDFD07460022244BFDF7D7FC6A
:104D6000CDE90401FDF7F8FD0990114890F8210004
:104D7000012808D10E4890F8200020B16FF0010002
:104D800013B0BDE8F08F0120FAE70000CC0200204C
:104D900001090020416C61726D5F737461747573F9
:104DA000315F6D73675B32305D3D3D2025782000BB
:104DB000881E00206D73675B32315D426974323D3D
:104DC0003D20257820000000204754323030305FED
:104DD00052782E4774323030305F66726571315BC5
:104DE000305D3D3D2025782000000000000010408F
:104DF00000002040000059402DE9F041B2B00025EC
:104E0000002600240020C74908750846807B012839
:104E100001D10520C872FFF751FDC3484179C3A0F5
:104E200008F0B0FE002537E05B22BF49103168462C
:104E3000FDF73AFA6B22BC4917A8FDF735FA17A817
:104E40000FC800F06FFF322010F040F901F020FA97
:104E5000322010F03BF9432000F0B2FC0446FFF78B
:104E60002DFD012C16D1B04890F82410BE4890F8C2
:104E70002500814207D0AC4890F82500BA4991F846
:104E80002410884202D1FFF719FD07E02946B7A098
:104E900008F078FE681CC5B2032DC5DB00BFBAA0C0
:104EA00008F070FE42F2107010F010F900261AE0BF
:104EB00001F0EEF9432000F083FC0446A01C40B949
:104EC000B9A008F05FFEFFF7CFFC204632B0BDE886
:104ED000F081012C02D1FFF7F1FC06E0322010F046
:104EE000F5F8701CC6B2032EE2DB00BF012C74D1B2
:104EF0008D4824300DF010F98A48407D01281BD1DF
:104F0000002088494875C87302200873002048743F
:104F10008874C87404F0A8FAAAA008F033FE0DF053
:104F2000BFFA012803D111207E49C87202E0022095
:104F30007C49C8720020C9E7AA484078012803D0FC
:104F4000A848C07801280FD111207649C8720020E6
:104F50004875C87302200873002048748874C874A8
:104F600004F082FA0020B1E76E4890F85B006D49CA
:104F700091F85A1088420FD101F0BEF9642010F068
:104F8000A5F899A008F0FEFD6648C07A05280FD064
:104F900001206449C8720BE001F02CF9614890F8D7
:104FA0005A2090F85B10964808F0ECFD00208DE741
:104FB000012C13D000205B494875022008730020A3
:104FC00048748874C87404F04FFA0A2085498871BF
:104FD0008CA008F0D7FD002078E787E0002524E0CA
:104FE00001F056F9322010F071F8CE2000F0E8FB05
:104FF0000446A01C18B9FFF737FC204666E749496C
:10500000C86EFDF765FC07460022874BFDF78CFC58
:1050100003D801204349887509E00020414988757B
:10502000C82010F053F8681CC5B2322DD8DB00BF81
:10503000012C07D00C206B4988717CA008F0A2FDE0
:10504000002043E73749C86EFDF742FC07460022BF
:105050007F4BFDF751FC3CD83249886FFDF738FC97
:10506000074600227A4BFDF75FFC32D25D48C07CD8
:1050700078BB2C48807A012824D15A49087502F05F
:1050800041FD7449096847187349384608F02EFDF8
:105090007148007DA0F5FA607049C8706E48017CC7
:1050A0006E4801716C48017B6C4841716A48017A15
:1050B0006A488171684801796848C1716648017819
:1050C00066480172012047490870C87464A008F05E
:1050D00059FD0FF035FA6AA008F054FD41484078B8
:1050E00001281CD1FFF7C0FB0020EFE66FA008F0FD
:1050F00049FD00200B4948750220087300204874C0
:105100008874C87404F0B0F96EA008F03BFD082064
:10511000344988716EA008F035FD0020D6E60020E5
:10512000D4E600004C020020F31E00202031D3C939
:10513000B4CBBDF8C8EBC9E8D6C3B9A4D7F7C4A3AC
:10514000CABDBACDC6B5C2CA4754323030305F543A
:10515000782E4774323030305F6D6F64653D3D208E
:105160002564200A00000000881E002020B5DA20F7
:10517000256420B4CEB7A2C9E4B2CECAFDC9E8D630
:10518000C3CAA7B0DC200A002020C9E8D6C3CDEAF4
:10519000B9A4D7F7B2CECAFDBAF3B5C8B4FD313061
:1051A0007321200A000000002020B4A5B7A24754B4
:1051B000323030305F416C61726D5F53746F7021BB
:1051C000200A000020BFAAB7A2C9E4C5D0B6CFCA42
:1051D000C7B7F1D3D0C0FACAB7B1A8BEAF20A3A158
:1051E000200A0000D303002020C6B5B6CED2BBD61D
:1051F000C2A3A1BFAAB7A2C9E4200A2000000000F0
:105200004065010820416C61726D2E6E6F5F7265A2
:1052100073706F6E645F6C6F63617465203D2031E5
:105220003020200A0000000000C0624020416C6174
:10523000726D2E6E6F5F726573706F6E645F6C6FF0
:1052400063617465203D20313220200A0000000097
:105250000000244008000020240F00200109002045
:1052600020BFAAB7A2C9E4BAF3BCECB2E2B5BDCE86
:10527000DEB9A6C2CAB1A8BEAF31A3A1200A000000
:1052800020D4CBD0D0B5BDD5E2C0EFB1EDCABEB70A
:10529000A2C9E4B3C9B9A6A3ACBDF8D0D0D7A4B213
:1052A000A8B1C8BCECB2E220200A0000456D6973C9
:1052B0002F2F4368616E6E656C206661696C0D0A04
:1052C00000000000B7A2C9E4CAA7B0DC0D0A0000C4
:1052D000424A323030305F456D6974204368616EF8
:1052E0006E656C2038206E6F20726573706F6E640F
:1052F0002E0D0A0010B5002400204649487188711F
:10530000AF21444802F012FA00204249C87101213D
:10531000404801720021417200BF05E000213D4874
:1053200024300155601CC4B2082CF7DB002405E0D2
:10533000002138482E300155601CC4B2082CF7DB20
:10534000002405E00021334838300155601CC4B208
:10535000082CF7DB002405E000212E480A30015517
:10536000601CC4B2042CF7DB002405E000212948AE
:1053700010300155601CC4B2042CF7DB0120264913
:105380004871002088710321234880F84310CF2002
:10539000214981F84200002081F82100C8710121D3
:1053A0001D48017200214172002405E000211A48C5
:1053B00024300155601CC4B20A2CF7DB002405E040
:1053C000002115482E300155601CC4B20A2CF7DBB1
:1053D000002405E00021104838300155601CC4B29B
:1053E0000A2CF7DB002405E000210B480A300155A8
:1053F000601CC4B2052CF7DB002405E00021064840
:1054000010300155601CC4B2052CF7DB00210248A6
:10541000C17410BDF31E0020881E002010B500F0DE
:1054200037FFCE2000F0CCF90446A01C10B9FFF7DE
:105430001BFA10BD012C0ED1FFF740FA1E200FF011
:1054400045FE00F0F1FE4FF47A700FF03FFE0620AB
:105450001049C8721CE001200F49C8700FA008F065
:1054600091FB00200C4948710A490873FD2011493D
:10547000487011A008F086FB144890F8CA00012873
:1054800006D10DF00DF8012802D111200149C87292
:1054900000BFCEE74C020020D303002020416C6106
:1054A000726D2E6E6F5F726573706F6E6420332045
:1054B000212000002100002073797374656D206F36
:1054C00070656E206661696C210A0000F50200209B
:1054D00070B5002601204E4948750020087500BFB0
:1054E0000CE000F0D5FECE2000F06AF90446012C55
:1054F00001D0A01C00B903E0701CC6B2032EF0DB83
:1055000000BF012C51D14248807D01280CD00020E1
:105510003F498873487548748874C87403F0A4FFC1
:10552000FC203C49487049E0002517E000F0CAFE25
:1055300040F2DC500FF0CAFD00F0AAFECE2000F0D1
:105540003FF90446012C07D1334890F8220018B9DE
:1055500032A008F017FB03E0681CC5B20A2DE5DB9A
:1055600000BF00202A498873487548748874C8743D
:1055700003F07AFF0CF094FF012806D11120244992
:10558000C8722BA008F0FEFA05E002202049C8727C
:1055900031A008F0F7FA00201D49887537A008F0FF
:1055A000F1FAFE201B49487008E0022019494870B2
:1055B0000D203D4988713DA008F0E4FA1448807D33
:1055C00028BB1348807B012816D137484078012832
:1055D00007D03548C078012803D03348C07C012863
:1055E00006D111200A49C87200208873487506E068
:1055F00005200749C87202E002200549C87203F07D
:1056000033FF31A0FDF786FC35A008F0BBFA70BD72
:105610004C0200201A000020881E00202047745FE2
:1056200052465F436C6F7365204F4BA3A12000006F
:10563000204754323030305F53746F705F6861764A
:10564000655F686973746F72795F616C61726D20F8
:10565000A3A1200A00000000204754323030305F00
:1056600053746F705F53595354454D5F5354414EBB
:1056700044425920A3A1200A0000000020475432D0
:105680003030305F53746F705F5F53797374656D42
:105690002E656D697373696F6E3D302053746F7042
:1056A0005F6F6BA3A1200A00D30300202047543270
:1056B0003030305F53746F705F53746F705F66612A
:1056C000696C20A3A1200A0073746F702073756346
:1056D0006365737366756C6C79210D0A00000000B8
:1056E000204754323030305F53746F70CDA3D6B939
:1056F000B3C9B9A6A3A1200A00000000FEB5054663
:105700000C46002600208DF809002878697840EAC8
:10571000012631460DA009F0FDF9324613A101A87A
:1057200009F008FA214601A80CF07EFD01A911A09C
:1057300008F028FA0020A070E070E0780090A378CC
:105740006278217814A008F01DFAFEBD2032BBF16A
:10575000C8A1B5BDB5C4CAAEC1F9BDF8D6C6C6B5F7
:10576000C2CACEAA3D202558200A00002530356443
:10577000000000002032BBF1C8A1B5BDB5C4CAAE5F
:10578000BDF8D6C6C6B5C2CACEAA667265713D203E
:105790002573200A000000002032D7AABBAFBAF35D
:1057A000B5C4C6B5C2CACEAA3D2025303258202580
:1057B00030325820253032582025303258200A0007
:1057C0002DE9F84F05460027B846B94600262B2D8F
:1057D00025D00CDC032D2ED004DC012D10D0022DA1
:1057E0002CD125E00D2D17D0182D27D11DE02D2D02
:1057F00018D0432D0AD0742D0BD0CE2D1ED102E02F
:105800004FF014091DE04FF014091AE04FF014098D
:1058100017E04FF4167914E04FF0140911E04FF03F
:1058200014090EE04FF014090BE04FF0140908E0E2
:105830004FF4967905E04FF03C0902E04FF064091F
:1058400000BF00BF0027A5E10AE0A02E05DA9DF801
:1058500000203046761CFE490A5401200FF036FC29
:10586000694603200AF0D6FA0028EED1022E7DDD2B
:10587000F7480078422879D1F54890F89E004128F1
:10588000F9D1F34890F89F000028F4D12946F04858
:10589000FFF74AF80446EF4890F82100002839D174
:1058A000ED4948748874C87403F0DEFD0020EA49AD
:1058B000486788678873087348730CF0F1FD012806
:1058C00006D11120E449C872E4A008F05BF914E0A5
:1058D000E148C07A062810D0DF48C07A11280CD0E1
:1058E000DC4890F8210040B90420DB49C872002050
:1058F00081F8A700DFA008F045F9D64890F821000C
:1059000020B90020D44981F8A70003E00120D24942
:1059100081F8A700CF4890F8210001281CD1CD487C
:1059200090F82200C0B9D748CB4948670846C07AEA
:1059300005280AD00846C07A112806D0084690F8F3
:10594000A800012801D00220C872CFA008F01AF9DF
:105950000120C14981F8A700BE4890F82100012824
:105960001AD1BC4890F82200012800E00CE113D1C4
:10597000B948C07A052808D0B748C07A112804D0A1
:105980000120B549C872BF484867C3A008F0FAF8BB
:105990000120B14981F8A700A01C00287ED1AD48A4
:1059A00090F821000128F9D1AA4890F82000002899
:1059B00074D04FF47A700FF089FB00F069FCCE20B0
:1059C000FFF7FEFE0446A34890F82100012845D1C8
:1059D000A04890F82000D0B39F48807A01282BD1AE
:1059E000B149887002F08EF8B049096800EB010AED
:1059F000AF49504608F07AF8AD48007DA0F5FA604E
:105A0000AC4981F83700AA48017CAA4880F83810D0
:105A1000A748017BA74880F83910A548017AA54816
:105A200080F83A10A2480179A24880F83B10A048BB
:105A30000178A04880F83C1011208749C8720120E5
:105A4000994908704870834890F8201000E005E0FC
:105A500099A008F097F86FF0010458E07E4890F89C
:105A60005800012803D17B4981F8220003E000207F
:105A7000784981F822007748C06977498867754975
:105A8000C97A744A927A41EA0220FCF7AFFE724961
:105A9000C8667049497C6F4A127C00E00CE041EA1C
:105AA0000220FCF7A3FE6C49086703F023FD0020E9
:105AB0007D49487101242AE0674890F85800012880
:105AC00003D1644981F8220003E00020614981F894
:105AD00022006048C069604988675E49C97A5D4AAA
:105AE000927A41EA0220FCF781FE5B49C866594977
:105AF000497C584A127C41EA0220FCF777FE56495D
:105B0000086703F0F7FC0020674948710124012C65
:105B100037D16548C078012803D100204E49487527
:105B2000C873002060494871C8700CF0B9FC0128A6
:105B30001FD14948C07A012803D04748C07A0528B8
:105B400013D15948407801280BD05748C078012814
:105B500007D05548C07C012803D05348407C012819
:105B60000FD111203C49C8720BE011203A49C8728C
:105B700007E00AF0B1F83848807810B910203649AB
:105B8000C8722046BDE8F88F002632200FF09EFA3A
:105B9000781C87B24F45FFF657AE2F48C07A1028C1
:105BA00040D04148C078E8BB3F484079401C3E495E
:105BB000487108464079032834DB002048712648A4
:105BC000807A01282AD1087101F09CFF37490968C1
:105BD00000EB010A3649504607F088FF3448007D43
:105BE000A0F5FA60334981F831003148017C314831
:105BF00080F832102E48017B2E4880F833102C4854
:105C0000017A2C4880F8341029480179294880F815
:105C1000351027480178274880F8361000200E49B3
:105C2000887500E079E001201F49C87032A007F0B4
:105C3000A9FF01201C490870002007494874887496
:105C4000C874084690F816800020486788675FE0AF
:105C5000FE1F0020881E00204C02002020D3D0C050
:105C6000FACAB7B1A8BEAFCFFBCFA2A3A1200A202A
:105C700000000000B9D8BBFAD7B4CCAC31A3A12046
:105C80000A00000000002C4220B4FDBBFAD7B4CCBF
:105C9000AC31A3A1200A0000B7A2C9E4D7B4CCACB0
:105CA00031A3A1200A000000D30300200800002037
:105CB000240F002001090020656D697373696F6E00
:105CC00020616C61726D20616C61726D20616C612C
:105CD000726D21204754323030305F52782E737904
:105CE0007374656D5F737461747573313D3D202508
:105CF000303258200D0A000020416C61726D2E6E0A
:105D00006F5F726573706F6E642031202120000018
:105D100003F0AAFB024880F816804FF0FF3031E70D
:105D20004C0200200FB400B597B09DF86500012823
:105D300023D100F05DFC4FF47A700FF0C7F95B22BD
:105D40001CA96846FCF7B0FA18A80FC800F0F0FCD0
:105D50004FF47A700FF0BAF95B221CA96846FCF781
:105D6000A3FA18A80FC800F0E1FA4FF47A700FF008
:105D7000ADF930A007F006FF53E09DF8650002285A
:105D80001FD100F035FC4FF47A700FF09FF95B22C1
:105D90001CA96846FCF788FA18A80FC800F0C8FCD0
:105DA0004FF47A700FF092F95B221CA96846FCF759
:105DB0007BFA18A80FC800F0B9FA26A007F0E2FE97
:105DC0002FE09DF8650003281FD100F011FC40F280
:105DD000DC500FF07BF95B221CA96846FCF764FAE3
:105DE00018A80FC800F0A4FC40F2DC500FF06EF9C8
:105DF0005B221CA96846FCF757FA18A80FC800F0E8
:105E000095FA1CA007F0BEFE0BE09DF86500042883
:105E100002D100F0EDFB04E09DF865101DA007F035
:105E2000B1FE9DF8651028A007F0ACFE17B05DF834
:105E300014FB000020B9CCC6B5B9A4D7F7C4A3CAD7
:105E4000BDB2CECAFDD2D1CFC2B7A2CDEAB1CFA3E7
:105E5000A10A000020CBABC6B5B9A4D7F7C4A3CA2A
:105E6000BDB2CECAFDD2D1CFC2B7A2CDEAB1CFA3C7
:105E7000A10A000020C8FDC6B5B9A4D7F7C4A3CABB
:105E8000BDB2CECAFDD2D1CFC2B7A2CDEAB1CFA3A7
:105E9000A10A0000206572726F72A3BACEDEB4CB85
:105EA000B9A4D7F7C4A3CABDA3A153656E645F4369
:105EB0004D442E4774323030305F6D6F64653D3D28
:105EC00020202564200A000020BFAAB7A2C9E4B997
:105ED000A4D7F7B2CECAFDC9E8D6C3C3FCC1EED27F
:105EE000D1CFC2B7A2CDEAB1CFA3A153656E645F93
:105EF000434D442E4774323030305F6D6F64653DE2
:105F00003D20202564200A0000B5434A4349444807
:105F1000FCF705FF414800789A2837DA3F48407877
:105F20009A2833DA3D48807832282FDA3B48C07807
:105F300032282BDA384800789A2827DA3648407811
:105F40009A2823DA3448807832281FDA3248C07819
:105F500032281BDA314800782F490978884211DB52
:105F60002E4840782C49497888420BDB2B488078B2
:105F700029498978884205DB2848C0782649C978AC
:105F8000884201DA012000BD0020FCE723480078A8
:105F90009A281DDB214840789A2819DB1F48807811
:105FA000322815DB1D48C078322811DB1A480078EA
:105FB0009A280DDA184840789A2809DA1648807825
:105FC000322805DA1448C078322801DA0120DAE7ED
:105FD000124800789A281DDA104840789A2819DA71
:105FE0000E488078322815DA0C48C078322811DA49
:105FF000094800789A280DDB074840789A2809DB81
:1060000005488078322805DB0348C078322801DB58
:106010000020B8E70020B6E74C010020480100202E
:106020000088030810B5FFF76FFF08B1024C00E0CD
:10603000024C204610BD000000A00108002000080E
:106040002DE9F041E4B080460C460025A0788DF89B
:10605000050020798DF8060061798DF80710E07849
:106060008DF8080100BF05E0E81D215C02A841553C
:10607000681CC5B29DF80801C01EA842F4DC94F863
:106080000001001F205C8DF88C0194F80001C01EF7
:10609000205C8DF88D019DF88D019DF88C1100EB31
:1060A0000127002505E0281D205C43A94855681CF0
:1060B000C5B29DF80801A842F5DC9DF8081143A877
:1060C000FDF7BEFA0646BE4203D101208DF804005A
:1060D00005E000208DF8040005A0FCF71BFF40F24E
:1060E000051201A94046FCF7DFF864B0BDE8F08175
:1060F000435243B4EDCEF30D0A00000010B5FFF794
:1061000003FF08B1024C00E0024C204610BD000025
:106110000020000800A0010810B50E4B1A681B1DD6
:1061200018681B1D19680C4C2270130A6370130C3D
:10613000A370130EE3702071030A6371030CA37143
:10614000030EE37121720B0A63720B0CA3720B0E28
:10615000E37210BDE8F7FF1F1E2D0020F0B58DB0D3
:1061600004463022224901A8FCF79EF86069451ECA
:10617000642195FBF1F12846EA1705EB9272C1EB19
:10618000A2014FF4C87295FBF2F28F186069C11733
:1061900000EB91718910A0EB810191B964226169D2
:1061A00091FBF2F302FB131131B99200616991FB8B
:1061B000F2F302FB131121B92169022901DD012645
:1061C00000E0002640F26D1005FB00712069401EC2
:1061D00001AA52F820000844E16808440644072058
:1061E00096FBF0F100FB1160A0610DB0F0BD000066
:1061F000B464010800B587B0182205A101A8FCF716
:1062000053F8162201A9032009F013FE07B000BDC0
:10621000420A020000000000000000000000000030
:10622000000000004141000000B587B0182205A120
:1062300001A8FCF739F8162201A9032009F0F9FD9D
:1062400007B000BD420A010000000000000000008D
:1062500000000000000000004141000000B587B0D0
:10626000182205A101A8FCF71FF8162201A9032096
:1062700009F0DFFD07B000BD420A05000000000084
:10628000000000000000000000000000414100008C
:1062900000B587B0182205A101A8FCF705F8162261
:1062A00001A9032009F0C5FD07B000BD420A140092
:1062B00000000000000000000000000000000000DE
:1062C0004141000000B587B0182205A101A8FBF7E5
:1062D000EBFF162201A9032009F0ABFD07B000BDBA
:1062E000420A04000000000000000000000000005E
:1062F000000000004141000000B587B0182205A150
:1063000001A8FBF7D1FF162201A9032009F091FD96
:1063100007B000BD420A03000000000000000000BA
:106320000000000000000000414100000FB410B563
:106330009EB09DF88500012848D142208DF860006C
:106340000A208DF8610006208DF8620000208DF88B
:1063500063009DF8A4008DF864009DF8A5008DF8F9
:10636000650000208DF866008DF867001A901B907C
:106370001C9041208DF874008DF87500162218A924
:10638000032009F056FD40F2DC500EF09FFE5B2228
:1063900024A96846FBF788FF20A80FC800F0C8F9B9
:1063A0004FF47A700EF092FE7FA007F0EBFB002412
:1063B00006E018A8015D81A007F0E4FB601CC4B2F0
:1063C000162CF6DB7FA007F0DDFBE8E09DF88500EA
:1063D00002285BD142208DF860000A208DF8610010
:1063E00006208DF8620000208DF86300299819902E
:1063F00000201A901B901C9041208DF874008DF89D
:106400007500162218A9032009F013FD40F2DC5094
:106410000EF05CFEFEF752FA182118A8FBF75DFF9C
:1064200042208DF860000A208DF8610007208DF869
:10643000620000208DF863001990BDF8AE00ADF841
:1064400068000020CDF86A00CDF86E0041208DF87C
:1064500074008DF87500162218A9032009F0E9FCD4
:1064600040F2DC500EF032FE57A007F08BFB002408
:1064700006E018A8015D51A007F084FB601CC4B2BF
:10648000162CF6DB4FA007F07DFB88E09DF8850019
:1064900003289AD142208DF860000A208DF861000F
:1064A00006208DF8620000208DF86300299819906D
:1064B00000201A901B901C9041208DF874008DF8DC
:1064C0007500162218A9032009F0B3FC40F2DC5035
:1064D0000EF0FCFDFEF7F2F9182118A8FBF7FDFEFF
:1064E00042208DF860000A208DF8610007208DF8A9
:1064F000620000208DF863001990BDF8AE00ADF881
:1065000068000020CDF86A00CDF86E0041208DF8BB
:1065100074008DF87500162218A9032009F089FC73
:1065200040F2DC500EF0D2FDFEF7C8F9182118A891
:10653000FBF7D3FE42208DF860000A208DF8610041
:1065400008208DF8620000208DF8630019901A90E1
:10655000BDF8B800ADF86C000020CDF86E00412009
:106560008DF874008DF87500162218A9032009F023
:1065700060FC40F2DC500EF0A9FD18A007F002FB11
:10658000002406E018A8015D0CA007F0FBFA601CCF
:10659000C4B2162CF6DB0BA007F0F4FA00BF1EB055
:1065A00010BC5DF814FB000020C4A3CABD312062FA
:1065B00075665B302D32315D3D2000002025303284
:1065C00058200000200A200020C4A3CABD32206247
:1065D00075665B302D32315D3D20000020C4A3CABA
:1065E000BD33206275665B302D32315D3D20000089
:1065F00010B586B00446012C1FD142208DF8000052
:106600000A208DF801008DF8020000208DF80300AB
:106610000E2101A8FBF761FE01208DF81200002079
:106620008DF8130041208DF814008DF81500162206
:106630006946032009F0FDFB65E0022C1FD14220D2
:106640008DF800000A208DF801008DF8020000206E
:106650008DF803000E2101A8FBF73FFE02208DF804
:10666000120000208DF8130041208DF814008DF8E1
:10667000150016226946032009F0DBFB43E0032CDA
:106680001FD142208DF800000A208DF801008DF8FE
:10669000020000208DF803000E2101A8FBF71DFE6B
:1066A00003208DF8120000208DF8130041208DF892
:1066B00014008DF8150016226946032009F0B9FB75
:1066C00021E0042C1FD142208DF800000A208DF813
:1066D00001008DF8020000208DF803000E2101A8B2
:1066E000FBF7FBFD04208DF8120000208DF813004D
:1066F00041208DF814008DF81500162269460320FC
:1067000009F097FB00BF214602A007F03BFA06B054
:1067100010BD000020C9E8D6C3B9A4D7F7C4A3CAE6
:10672000BD2564C3FCC1EED2D1CFC2B7A2200A00FE
:106730000FB400B587B042208DF804000A208DF810
:10674000050009208DF8060000208DF80700029052
:1067500003900490BDF86200ADF814000020ADF87D
:10676000160041208DF818008DF81900162201A995
:10677000032009F05EFB9DF815209DF8141003A07E
:1067800007F000FA07B05DF814FB000020C9E8D656
:10679000C3B9A6C2CAC3FCC1EED2D1CFC2B7A253FD
:1067A00065745F506F7765722E4672657175656EA0
:1067B00063795F706F7765723D202578202578209A
:1067C0000A0000000CA500240CE0285D1649088092
:1067D00000BF1548001F008800F040000028F8D0D6
:1067E000601CC4B22F2CF0D3082010490860FCF7BD
:1067F00091FE00BFFEE700000D0A456E7465722031
:10680000486172644661756C745F48616E646C6562
:10681000722C2053797374656D2048616C646661D5
:10682000756C742E0D0A000004380140100C0140F4
:1068300070B505460C4645F2555000F02BF8284639
:1068400000F01CF8204600F01FF800F00FF800F0F0
:1068500001F870BD4CF6CC4001490860704700005B
:106860000030004010B500F001F810BD4AF6AA2033
:10687000014908607047000000300040014948604D
:1068800070470000003000400149886070470000F8
:1068900000300040014908607047000000300040AF
:1068A00000B585B00121052000F0BAFF0121880361
:1068B00000F0B6FF4FF40070ADF8100018208DF80E
:1068C000130003208DF8120004A97948FDF7F4FEA7
:1068D0004FF48060ADF8100004208DF8130004A977
:1068E0007348FDF7E9FE4FF4E13000900020ADF869
:1068F0000400ADF80600ADF80800ADF80C000C205F
:10690000ADF80A0069466B4807F0E6F9012240F24B
:106910002551684807F0BBF90121664807F081F965
:106920004021644807F074F90121052000F078FF48
:106930000121480400F064FF0420ADF81000182085
:106940008DF8130003208DF8120004A95848FDF7B4
:10695000B3FE0820ADF8100004208DF8130004A940
:106960005348FDF7A9FE4FF4165000900020ADF8F3
:106970000400ADF80600ADF80800ADF80C000C20DE
:10698000ADF80A0069464C4807F0A6F9012240F22A
:106990002551494807F07BF90121474807F041F9A3
:1069A0004021454807F034F90121112000F038FF5B
:1069B0000121C80400F024FF4FF48060ADF81000FE
:1069C00018208DF8130003208DF8120004A93B480D
:1069D000FDF772FE4FF40060ADF8100004208DF852
:1069E000130004A93548FDF767FE4FF416500090D8
:1069F0000020ADF80400ADF80600ADF80800ADF8D1
:106A00000C000C20ADF80A0069462D4807F064F927
:106A1000012240F225512A4807F039F9012128487E
:106A200007F0FFF84021264807F0F2F80121312055
:106A300000F0F6FE0121080500F0E2FE4FF4805060
:106A4000ADF8100018208DF8130003208DF8120007
:106A500004A91A48FDF730FE0420ADF810008DF8A7
:106A6000130004A91748FDF727FE4FF416500090B5
:106A70000020ADF80400ADF80600ADF80800ADF850
:106A80000C000C20ADF80A0069460F4807F024F905
:106A9000012240F225510C4807F0F9F801210A487B
:106AA00007F0BFF84021084807F0B2F805B000BD74
:106AB000000801400038014000440040001001403F
:106AC000004C004000140140005000402DE9F04708
:106AD000054600260024A24604274FF001086B4813
:106AE00090F826006A49086068480068486067486E
:106AF0004068886065488068C8606448C06808610C
:106B00006248006948616148406988615F488069FE
:106B1000C8615E48C0690862002004E05D49095C04
:106B20005D4A1154401C0428F8DB5A48A03890F8FC
:106B3000A4005A4908705748A03890F8A50048703A
:106B4000FDF7B2FA4FF0010A3420FDF7F3F9002601
:106B500008E053494FF4006202FB0610FDF7F0F91C
:106B60000746761C564501D2042FF2D04C4C4848BB
:106B700001682046FDF74EFA241D4FF0010908E098
:106B8000434850F829102046FDF744FA241D09F126
:106B90000109B9F1080F04DC4248844201D2042FF4
:106BA000EED029462046FDF735FA3A48A03890F84D
:106BB000A600012824D03C48FDF7C2F907463A4C0C
:106BC0004FF0000908E0344810F809102046FDF79E
:106BD00021FA241D09F10109B9F1040F05DA32483F
:106BE0001A30844201D2042FEDD02C48017820467F
:106BF000FDF710FA241D294841782046FDF70AFACE
:106C0000FDF7DEF9264C002009E02168204A52F801
:106C10002020914201D04FF00008241D401C09287B
:106C200005DA20498C4202D2B8F1000FEDD120687C
:106C3000A84201D04FF000081648A03890F8A600EE
:106C4000012820D0184C002008E02168124A125C6C
:106C5000914201D04FF00008241D401C042806DAA0
:106C600011491A318C4202D2B8F1000FEDD12068DF
:106C70000A490978884204D16068084949788842FD
:106C800001D04FF000084046BDE8F087E90300203E
:106C90008C540020EC0200205C01002060010020E8
:106CA00000200308FF270308009803082DE9F04798
:106CB00000250024A146042601274FF469724249A9
:106CC0004248FBF7F1FA4FF4697241494148FBF73A
:106CD000EBFAFDF7E9F94FF001093420FDF72AF945
:106CE00000BF08E03C494FF4006202FB0510FDF7CD
:106CF00027F906466D1C4D4501D2042EF2D0364CC4
:106D00003648807B022804D101212046FDF782F914
:106D100003E000212046FDF77DF9241D4FF0000817
:106D200008E02A4850F828102046FDF773F9241D82
:106D300008F10108B8F5E97F04DA2948844201D254
:106D4000042EEED04FF0000808E0264850F8281036
:106D50002046FDF75FF9241D08F10108B8F10A0F7C
:106D600004DA1F48844201D2042EEED0FDF728F940
:106D7000194C2068241D002008E02168134A52F8AD
:106D80002020914200D00027241D401CB0F5E97F4F
:106D900004DA13498C4201D2002FEED1002008E022
:106DA0002168104A52F82020914200D00027241D6B
:106DB000401C0A2804DA0A498C4201D2002FEFD184
:106DC0003846BDE8F087000060120020B054002073
:106DD0006016002054580020002803084C020020B0
:106DE000FF2F0308601E00202DE9F047054600260E
:106DF000002400274FF004084FF00109FDF754F973
:106E000001273420FDF796F800BF08E014494FF43D
:106E1000006202FB0610FDF793F88046761CBE4226
:106E200002D2B8F1040FF1D00D4C01212046FDF73C
:106E3000F1F8241D29462046FDF7ECF8FDF7C0F8CF
:106E4000241F2068012801D04FF00009241D20686C
:106E5000A84201D04FF000094846BDE8F087000085
:106E60000030030808B50121082000F0D9FC0820F3
:106E7000ADF8000010208DF8030003208DF802000B
:106E800069460E48FDF718FC0121082000F0C8FCF7
:106E90001020ADF800008DF8030003208DF80200EB
:106EA00069460648FDF708FC08210448FDF7DAFCAE
:106EB00010210248FDF7D6FC08BD0000000C01407F
:106EC0003EB500245B4C082201A92046FDF7D8F806
:106ED0000422694604F11000FDF7D2F8FF2056495C
:106EE0000870487088700020C870FFF715F9534982
:106EF000887900EBD0714910A0EB410121B14F48D6
:106F00008079401C4D498871002006E04B4A811D64
:106F1000515C4B4A1154411CC8B20628F6DB9DF85F
:106F20000400FF2825D09DF80600FF2821D09DF8F9
:106F30000800FF281DD09DF80A00FF2819D09DF8F1
:106F40000000FF2815D09DF80200FF2811D09DF801
:106F5000040070B19DF8060058B19DF8080040B1DA
:106F60009DF80A0028B19DF8000010B19DF80200BC
:106F7000B8B9C02033490870A8204870082088702C
:106F80007820C870C02030490870A82048700820B8
:106F900088700120C87004202C490870C9204870EE
:106FA0001FE09DF80400274908709DF8060048700E
:106FB0009DF8080088709DF80A00C8709DF80400CC
:106FC000214908709DF8060048709DF808008870F7
:106FD0000120C8709DF800001C4908709DF802004F
:106FE000487004201A490870CC20487004201949C0
:106FF0000870CD204870042017490870CE204870D2
:10700000C02016490870A820487008208870052004
:10701000C8700020124908707B2048700020114978
:107020000870114908700220104908701049087052
:107030003EBD0000009803086F0000201E2D0020B8
:1070400073000020790000206B0000207D000020EC
:10705000850000208D00002095000020A300002066
:10706000A7000020A9000020AA000020AB000020FB
:10707000AC00002000BFFEE7054A116800BF0A18F7
:10708000034B1B689A42FAD20022014B1A607047E8
:10709000B80000207047000010B5302202490320DC
:1070A00007F0D4FB10BD0000C000002008B54FF46D
:1070B000407000F049F81E208DF8000002208DF885
:1070C000010001208DF802008DF80300684600F0F1
:1070D00003F807F0A7F908BD70B5002100230F22BF
:1070E000C47804B3154C246804F4E064C4F5E06487
:1070F000210AC1F10403CA40447804FA03F18478F8
:107100001440214309010E4C0678A155047804F07F
:107110001F050124AC4005786D11AD0005F1E02597
:10712000C5F8004109E0047804F01F050124AC40D3
:10713000044D0678761145F8264070BD0CED00E050
:1071400000E400E080E100E002490143024A1160EE
:10715000704700000000FA050CED00E0024A0A400A
:107160000243024B1A60704780FFFF1F08ED00E0EA
:107170002DE9F04F8BB0064688464FF00009CA460D
:10718000CB4600200A900990079006900590049045
:107190000A2096FBF0F0C4B20A2098FBF0F0C0B2CF
:1071A00008900A2096FBF0F100FB1160C5B2F74889
:1071B0000078012820D1E01E00EB800005EB4000A4
:1071C000F34951F8200004900498FBF781FB00225A
:1071D000F04BCDE90201FBF78FFB0DD30498FBF7D1
:1071E00077FB00224FF08043CDE90201FBF79CFBC7
:1071F00002D90BB0BDE8F08FE748C07B012803D06F
:10720000E548407D012812D1FEF762F90020E249ED
:107210008873487548748874C87402F025F9022090
:10722000DD49C8722946204600F076FFE1E7DA49D9
:10723000486FFBF74DFB0022D84BCDE90201FBF76D
:107240005BFB06D20020D4490873D5A006F09AFC57
:10725000CFE70520D049C87201208873D949487109
:107260000421D84880F843101020D64981F8420004
:107270004FF47A70604305EBC50101EB051100EB9B
:1072800081073946D0A006F07DFC3A46D3A10AA872
:1072900007F050FC02220AA909A802F06FF89DF835
:1072A0002500C84981F824009DF82410C54880F8BD
:1072B0002510002180F8261080F827109DF829005D
:1072C00000909DF828302A462146C64806F05AFC10
:1072D000BC4890F8252090F82410C3A006F052FC7A
:1072E0000020079006900590FDF786FD82465146E6
:1072F000C7A006F047FC41F270700DF0E7FEFEF704
:10730000C7FF4320FEF75CFA82460AF1020058B933
:107310000020079006904FF081400590611CC8B294
:10732000294600F0F9FE64E79B48807D012866D17C
:107330009948C06E07909848006F06909648C06FB5
:107340000590BB48C078012803D0B948C07C01280B
:1073500012D101209049C873FEF7BAF811208E4966
:10736000C872002088734875B2A006F00BFC29464D
:10737000204600F0D1FE3CE7AD484078012817D107
:107380008549C873FEF7A4F811208349C87200200C
:1073900088734875079006904FF081400590AEA025
:1073A00006F0F0FB611CC8B2294600F0B5FE20E7EC
:1073B0009F48407C012803D09D48C07A012844D1D1
:1073C00000209B494874C8727348C06E0790724889
:1073D000006F06907048C06F0590FEF779F80520A1
:1073E0006D49C8720120887300204875A1A006F07D
:1073F000C9FB611CC8B2294600F08EFE25E0A6A09C
:1074000006F0C0FB11206449C872002088734875DB
:10741000079006904FF081400590854840780128FC
:107420000ED1C873FEF754F811205B49C8720020D2
:1074300088734875611CC8B2294600F06DFE04E0EF
:10744000611CC8B2294600F067FE4FF47A600DF067
:107450003DFEFEF71DFF4320FEF7B2F98146B9F16C
:10746000010F08D14C48C06E07904B48006F069042
:107470004948C06F05904FF4FA600DF027FE079859
:10748000FBF726FA00228B4BCDE90001FBF73FF911
:10749000CDE90201FBF760FAE11E01EB810105EB8A
:1074A0004101854A42F82100E11E01EB810105EB13
:1074B0004101824A069842F82100E11E01EB810158
:1074C00005EB4101324A059842F82100FEF7FAFE29
:1074D00032200DF0FBFD4FF00109B9F1000F4AD049
:1074E00000202D49487576A0FBF714FD2A48C07B83
:1074F000012803D02848407D012810D100202649CA
:107500008873487548748874C87401F0ADFF022010
:107510002149C8722946204600F0FEFD69E601F0C7
:10752000A3FF05201C49C872012088730898844273
:107530001BDA4FF0000B14E01748C07B012803D082
:107540001548407D012805D1611CC8B2294600F0CC
:10755000E3FD4EE664200DF0B9FD0BF1010000F0F3
:10756000FF0BBBF1320FE7DBC2E0611CC8B229465A
:1075700000F0D2FD3DE605202D49887155A0FBF7AE
:10758000C9FC54A006F0FEFA33E6000024010020F6
:10759000601200200000F03F4C0200200000444038
:1075A0002053797374656D2E566F6C746167652016
:1075B0003C2034302E3020CDCBB3F6C9A8C6B5A3BD
:1075C000A10A0000F31E0020207363616E32C6B56D
:1075D000B5E36E3D20202564200A00002530345894
:1075E00000000000F064010820C9A8C6B5CFC2B7EA
:1075F000A2B5C47363616E325F667265715F547861
:107600003A20253032582025303258200000000022
:1076100020325F54305F4754323030305F456D69FF
:1076200074282920466C61673D202564200A0000EB
:10763000D303002020CEDED3A6B4F0B1A8BEAFA104
:10764000A2CEDEB9A6C2CAB1A8BEAFA1A2CDCBB3AD
:10765000F6C9A8C6B5200A0020BCA4C0F8C6F7D752
:10766000D4C9EDB1A8BEAFA1A2CDCBB3F6C9A8C60F
:10767000B5200A0020D7A4B2A8B1C8B1A8BEAFA156
:10768000A2B9FDC1F7B1A8BEAFA1A2CDCBB3F6C9D7
:10769000A8C6B5200A00000020C9A8C6B5B7A2C96F
:1076A000E4CAA7B0DCA1A2CDCBB3F6C9A8C6B52069
:1076B0000A0000000000244060160020601A00202C
:1076C00053776565702F2FB7A2C9E4CDA3D6B90D46
:1076D0000A00000053776565702073746F70203561
:1076E000206E6F20726573706F6E642E0D0A00003D
:1076F00000BF7EE5014908627047000000000E42AD
:1077000070B5044600256078217840EA01261120F2
:107710000CF0DAF8051E00D170BD324602A12846F1
:1077200007F008FA2846F7E72564000010B50A4676
:10773000002149E0535CC82B1BDAD9BB535C643B86
:1077400003EB830404EBC303C3F3072443231C5458
:10775000535C643B03EB830404EBC30380F84230C7
:1077600090F8424043231B5C44EA0323A0F84430D2
:1077700028E0535CC82B1EDB535CFA2B1BDAC9B91B
:10778000535C643B03EB830404EBC303C3F30724A0
:1077900043231C54535C643B03EB830404EBC3039B
:1077A00080F8423090F8424043231B5C44EA0323B4
:1077B000A0F8443006E029B9002380F842300024C4
:1077C00043231C544B1CD9B20329B3DB10BD00006A
:1077D0002DE9F04107460D461646002400BF04E09F
:1077E000285D06490855601C84B2B442F8DB324675
:1077F0000249384607F02AF8BDE8F0819E220020B1
:1078000029B1064AD2690243044BDA6104E0034A13
:10781000D2698243014BDA617047000000100240D8
:1078200029B1064A92690243044B9A6104E0034A73
:1078300092698243014B9A61704700000010024038
:107840000149086070470000400442420348406A12
:1078500040F080700149486270470000001002400B
:1078600010B5012144F20400FFF7CAFF01210920ED
:10787000FFF7D6FF10BD000030B500210022002424
:1078800000232D4D6D6805F00C0121B1042905D0B0
:10789000082923D105E0294D056022E0274D056028
:1078A0001FE0254D6D6805F47012234D6D6805F4D9
:1078B0008034022505EB92421CB9214D55430560E9
:1078C0000BE01D4D6D6805F400351DB11C4D554391
:1078D000056002E0194D5543056002E0174D056053
:1078E00000BF00BF144D6D6805F0F0010909154D8A
:1078F0006B5C0568DD4045600F4D6D6805F4E06127
:10790000090A104D6B5C4568DD4085600A4D6D6865
:1079100005F46051C90A0B4D6B5C4568DD40C560DC
:10792000054D6D6805F44041890B074D6B5CC568DA
:10793000B5FBF3F5056130BD0010024000127A007E
:1079400000093D00BC010020CC01002010B501461B
:107950000022002300204A11012A02D1094C236889
:1079600006E0022A02D1074C236A01E0054C636A53
:1079700001F01F02012494401C400CB1012000E0E2
:10798000002010BD0010024000210B4A11700A4A6D
:10799000203A82F82010012802D0042808D103E000
:1079A0000121054A117004E00521034A117000E02D
:1079B00000BF00BF7047000020100240014908606E
:1079C000704700003C0442420249096A0143014AEF
:1079D000116270470010024038B50020009000246A
:1079E000002500BF3120FFF7B1FF05460098401C7D
:1079F00000900098B0F5A06F01D0002DF2D031209A
:107A0000FFF7A4FF08B1012400E00024204638BDA0
:107A100010B504460420FBF7AFFA4AF2A55188429C
:107A200008D0204606F052F84AF2A5510420FBF790
:107A3000B1FA16E001214FF0C050FFF7E1FE01203E
:107A4000FFF758FE7B20FFF781FF10B97A20FFF780
:107A50007DFF00F0D5F80121084600F087F800F01E
:107A6000C5F800F093F8FFF7F1FE10BD0249098850
:107A70008143014A118070470428004010B501215C
:107A80004FF0C050FFF7BCFE0120FFF733FEFBF7BD
:107A90006BFA0120FFF778FF00BF4120FFF756FF88
:107AA0000028FAD04FF48070FFF78EFF0120FFF717
:107AB00085FF00F0A5F800F099F80121084600F0D4
:107AC00055F800F093F847F6FF7000F07FF800F0EB
:107AD0008DF8FFF781FF044610BD000003480088C1
